:10600D000A0D41393654343330205452494D205401
:10601D0045535421210A0D000A0D202530347820D6
:09602D003A200025303258200011
:055FD7004200FE000085
:1060C100900EC8EFF0E5CF30E7FB900EC8E0FF8FF0
:0F60D100FDE5CF30E6FB53CFBF900EC8E0FF22B6
:105E9E007B017D067F01124BB27B037D067F0112D3
:105EAE0014847B037D077F01121484900DD7740335
:105EBE00F0900DD8E4F0900DD9E4F0900DDAE4F006
:105ECE007F807E257D007C00123BC27BFF7A60794D
:055EDE000D1222552207
:10514B00900E65EEF0A3EFF0900E67ECF0A3EDF090
:10515B00900E69E4F0A3E4F0900E65E0FEA3E0FF8F
:10516B00900E67E0FCA3E0FDC3ED9FFFEC9EFEEF0E
:10517B002401FFEE3400FE900E69E0FCA3E0FDC3BA
:10518B00ED9FEC9E4003025216900E69E0FEA3E0E9
:10519B00FF7E00EF541FFFEF4E70277BFF7A607985
:1051AB0025900E69E0FEA3E0FF900E65E0FCA3E006
:1051BB00FDED2FFFEC3EFE900D20EEF0A3EFF01275
:1051CB0022557BFF7A607930900E69E0FEA3E0FFF9
:1051DB009000FEE0FCA3E0FD8D828C83E5822FF531
:1051EB0082E5833EF583E493FFEF54FFFF7E00904F
:1051FB000D20EEF0A3EFF0122255900E6AE004F0B2
:0B520B007006900E69E004F002516391
:015216002275
:1060E000125E9E1230A77F007E041248977F007ECA
:0E60F000041232EB7F507EC31259F680F72265
:10605C00EF8C838D82A52274AA7583F5758255A564
:10606C0074557583FA7582AAA574A57583F5758226
:03607C0055A52205
:0561E300000000002295
:1059F600900EAEEEF0A3EFF0900EAEE0FEA3E0FF49
:105A0600900EAEEEF0A3EFF01261E31261E31261C5
:105A1600E31261E31261E31261E31261E31261E3EF
:105A2600C3EF9402FFEE9400FE402A1261E3126176
:105A3600E31261E31261E31261E31261E31261E3CF
:105A46001261E300000000000000C3EF9401FFEEC6
:075A56009400FE50D600226F
:100E40005452494D5F57524954455F776974685F02
:100E50005452494D5F5461626C65427566666572B5
:100E6000203A20000D0A00424752454631565F5451
:100E700052494D203A0D0A00696E697469616C200F
:100E8000465553455F434647335F424752524546B6
:100E90005F31565F5452494D3D25303278200D0A5E
:100EA000005644434C4F434B203A205644434C4F4A
:100EB000434B2064697361626C65200D0A005644DF
:100EC000434C4F434B203A205644434C4F434B2016
:100ED00064656661756C74200D0A004247522031CA
:100EE0005620414443202873616D706C696E672001
:100EF00074696D6528414443435233293D25347557
:100F000029200D0A004247522031562041444320F7
:100F100064617461207461726765743D2575292070
:100F20000D0A006164635F646174615F7461626C87
:100F3000655F6267723176203A200D0A00253475AC
:100F400020006164635F64696666646174615F74F4
:100F500061626C655F6267723176203A200D0A002B
:100F60006164635F7377696E6777696474685F74DF
:100F700061626C655F6267723176203A200D0A000B
:100F80007375697461626C6520465553455F4346CD
:100F900047335F4247525245465F31565F5452498C
:100FA0004D3D2530327820200D0A00637572726540
:100FB0006E74206164635F646174615F746D70203E
:100FC0003A200D0A00564443315035565F54524979
:100FD0004D3A200D0A00696E697469616C204655AE
:100FE00053455F434647365F424D524247525F5634
:100FF0004443315035565F5452494D3D2530327887
:10100000200D0A00564443315031352041444320DD
:101010002873616D706C696E672074696D65284115
:101020004443435233293D25347529200D0A005687
:101030004443315031352041444320646174612080
:101040007461726765743D257529200D0A0061641D
:10105000635F646174615F7461626C655F76646331
:10106000317035203A200D0A006164635F6469665F
:1010700066646174615F7461626C655F766463313C
:101080007035203A200D0A006164635F7377696EE2
:101090006777696474685F7461626C655F766463C6
:1010A000317035203A200D0A007375697461626CE5
:1010B0006520465553455F434647365F424D524291
:1010C00047525F564443315035565F5452494D3D67
:1010D0002530327820200D0A000A0D005472696D07
:1010E0005F5461626C654275666665725F6D6F6EB6
:1010F00069746F722040253034783A200A0D00540C
:10110000616464723D253034783A20002530386CB3
:101110007820000A0D0A005452494D5F52656769F4
:10112000737465725F6D6F6E69746F72203A0D0A29
:101130000054414444525F4C4454315F4247525240
:1011400045465F31565F5452494D3D2530386C78E5
:10115000200D0A00465553455F434647335F4247DB
:10116000525245465F31565F5452494D3D2530320B
:1011700078200D0A0054414444525F4C4454315F7E
:10118000424D524247525F564443315035565F54A8
:1011900052494D3D2530386C78200D0A0046555394
:1011A000455F434647365F424D524247525F564481
:1011B00043315035565F5452494D3D2530327820E9
:1011C0000D0A0054414444525F495243333246436E
:1011D000414C5F484947485F5452494D3D2530389E
:1011E0006C78200D0A00465553455F434647315FF2
:1011F00049524333324643414C5F484947485F5464
:1012000052494D3D25303278200D0A005441444466
:10121000525F49524333324643414C5F4C4F575F14
:101220005452494D3D2530386C78200D0A00465502
:1012300053455F434647305F49524333324643414B
:101240004C5F4C4F575F5452494D3D25303278200A
:101250000D0A0054414444525F54495243313646CA
:1012600043414C5F484947485F5452494D3D253002
:10127000386C78200D0A00465553455F4346473584
:101280005F5449524331364643414C5F48494748D1
:101290005F5452494D3D25303278200D0A005441AB
:1012A0004444525F5449524331364643414C5F4CAB
:1012B0004F575F5452494D3D2530386C78200D0A08
:1012C00000465553455F434647345F5449524331C6
:1012D000364643414C5F4C4F575F5452494D3D2574
:1012E000303278200D0A0054414444525F544C443B
:1012F0004F5F5452494D3D2530386C78200D0A001F
:10130000465553455F434647385F544C444F5F54FE
:1013100052494D3D25303278200D0A000A0A0D0051
:1013200049524333324D5F5452494D203A200A0D01
:101330000073436F617273657472696D5F73657476
:101340003D25642C207346696E657472696D5F7308
:1013500065743D2564200A0D00465553455F43469C
:1013600047315F49524333324643414C5F48494716
:10137000485F5452494D3D25303278200A0D0046D1
:101380005553455F434647305F49524333324643E6
:10139000414C5F4C4F575F5452494D3D2530327898
:1013A000200A0D005449524331364D5F5452494D85
:1013B000203A200A0D0074436F617273657472697C
:1013C0006D5F7365743D25642C207446696E657489
:1013D00072696D5F7365743D2564200A0D00465582
:1013E00053455F434647355F544952433136464380
:1013F000414C5F484947485F5452494D3D25303282
:1014000078200A0D00465553455F434647345F54E4
:1014100049524331364643414C5F4C4F575F54521B
:10142000494D3D25303278200A0D00544C444F5F21
:101430005452494D203A200A0D00733270347674AC
:1014400072696D5F7365743D2564282578292C20A9
:1014500073347030767472696D5F7365743D2564A2
:1014600028257829200A0D00465553455F434647F5
:10147000385F544C444F5F5452494D3D25303278CB
:04148000200A0D0031
:105FDC00410B1C02420B100000420B120019420B29
:105FEC00140002420B160000420B180000410B1A61
:055FFC0007410B1B072B
:10581300900DFFEEF0A3EFF0900E01ECF0A3EDF08E
:10582300900DFFE0FEA3E0FF900E03EEF0A3EFF078
:10583300900E07E4F0A3E4F0900E05E4F0A3E4F087
:10584300900E01E0FEA3E0FF900E05E0FCA3E0FD57
:10585300C3ED9FEC9E5041900E03E475F001122CB2
:1058630029AFF0FE8F828E83E493FF900E09EFF051
:10587300900E09E0FFEF64FF600E900E08E004F065
:105883007006900E07E004F0900E06E004F0700638
:10589300900E05E004F080A8900E07E0FEA3E0FF61
:0158A30022E2
:105B8000126063901026745AF090102674A5F0905D
:105B900010207491F0901022E0FFEF30E1F79010A8
:105BA000297406F090102AE4F090102F740AF00087
:105BB000901022E0FFEF30E7F7007D007C027F00CD
:105BC0007E06125813EF4E600280FE00901020E413
:085BD000F090102F7430F02258
:105CD8001260639010267466F09010267499F09004
:105CE80010207491F0901029E4F090102AE4F090BC
:105CF800102F740AF000901022E0FFEF30E7F70051
:105D08007D007C027F007E00125813EF4E600280F7
:0D5D1800FE901020E4F090102F7430F02267
:105BD800126063901026745AF090102674A5F09005
:105BE80010207491F0901022E0FFEF30E1F7901050
:105BF800297402F090102AE4F090102F740AF00033
:105C0800901022E0FFEF30E7F7007D007C027F0074
:105C18007E02125813EF4E600280FE901020E4F0CE
:075C280090102F7430F022F0
:105C2F00126063901026745AF090102674A5F090AD
:105C3F0010207491F0901022E0FFEF30E1F79010F8
:105C4F00297404F090102AE4F090102F740AF000D9
:105C5F00901022E0FFEF30E7F7007D007C027F001D
:105C6F007E04125813EF4E600280FE901020E4F075
:075C7F0090102F7430F02299
:1046F500900EB0E4F0A3E4F0126063901026745AB3
:10470500F090102674A5F090102074A1F09010225E
:10471500E0FFEF30E2F79010297403F090102A744F
:10472500F0F090102B74B1F090102C74FFF09010F5
:104735002D74FFF090102E74FFF090102F740AF076
:1047450000901022E0FFEF30E7F700900EB0740301
:10475500F0A374F0F0900EB0E0FEA3E0FF8F828E20
:1047650083122D937BFF7AFF79FF78B1C3122D5CFD
:1047750070E39010297403F090102A74F4F09010EF
:104785002B74B2F090102C74FFF090102D74FFF084
:1047950090102E74FFF090102F740AF000901022E4
:1047A500E0FFEF30E7F700900EB07403F0A374F468
:1047B500F0900EB0E0FEA3E0FF8F828E83122D9362
:1047C5007BFF7AFF79FF78B2C3122D5C70E39010FE
:1047D500297403F090102A74F8F090102B74B3F03C
:1047E50090102C74FFF090102D74FFF090102E7423
:1047F500FFF090102F740AF000901022E0FFEF30C8
:10480500E7F700900EB07403F0A374F8F0900EB0C3
:10481500E0FEA3E0FF8F828E83122D937BFF7AFF4C
:1048250079FF78B3C3122D5C70E39010297403F0FF
:1048350090102A74FCF090102B74B4F090102C7426
:10484500FFF090102D74FFF090102E74FFF0901073
:104855002F740AF000901022E0FFEF30E7F7009088
:104865000EB07403F0A374FCF0900EB0E0FEA3E06C
:10487500FF8F828E83122D937BFF7AFF79FF78B4A9
:10488500C3122D5C70E3901020E4F090102F74306B
:01489500F032
:0148960022FF
:08504D00900DB3EEF0A3EFF0AB
:10505500900DB3E0FEA3E0FFEEC313FF7E00EF7FEC
:105065000025E0FE900DC1EEF0A3EFF0900DBDE43C
:10507500F0A3E4F0900DBDE0FEA3E0FFC3EF9402C2
:10508500EE9400400302514A900DBDE0FEA3E0FFFF
:10509500EF4E7026900DB5E0FCA3E0FDA3E0FEA366
:1050A500E0FF900DB9122DA3900DB3E0FEA3E0FF34
:1050B500900DBFEEF0A3EFF08022900DB9122DAF49
:1050C500FFFFFF00900DB3E0FEA3E0FFEF24FCFF20
:1050D500EE34FFFE900DBFEEF0A3EFF0900DB9E0BA
:1050E500FCA3E0FDA3E0FEA3E0FFC004C005C006ED
:1050F500C007900DC1E0FEA3E0FF900DBFE0FCA34B
:10510500E0FDC3ED9FFFEC9EFEEF7802CEC313CE0C
:1051150013D8F9FFEF7802C333CE33CED8F9FF7435
:105125001D2FF582740B3EF583D007D006D005D030
:1051350004122DA3900DBEE004F07006900DBDE0A5
:0551450004F0025079A6
:01514A002242
:1054F500900E6BE4F0A3E4F07BFF7A0E7940122264
:1055050055125C2F900E6B7404F0A37404F0900E8A
:105515006BE0FEA3E0FFC3EF9450EE940450799046
:105525000E6BE0FEA3E0FFEF2400FFEE34FCFEEF80
:105535007802CEC313CE13D8F9FFEF7802C333CE6A
:1055450033CED8F9FF741D2FF582740B3EF583E039
:10555500FCA3E0FDA3E0FEA3E0FF900E6D122DA3DA
:10556500900E6BE0FEA3E0FFC006C007900E6DE055
:10557500FCA3E0FDA3E0FEA3E0FF900DC5122DA363
:10558500D007D00612454B900E6CE02408F0900E23
:085595006BE03400F002551335
:01559D0022EB
:08454B00900DC3EEF0A3EFF0A8
:10455300900DC3E0FEA3E0FF900DD1EEF0A3EFF0CA
:10456300900DCEE4F0900DCEE0FF7E00C3EF9402F9
:10457300EE6480948040030246F4900DCEE0FF7E0B
:1045830000EF4E7026900DC5E0FCA3E0FDA3E0FE16
:10459300A3E0FF900DC9122DA3900DC3E0FEA3E08D
:1045A300FF900DCFEEF0A3EFF08030900DC9122DE8
:1045B300AFFFFFFF00900DC3E0FEA3E0FFEF24FC7D
:1045C300FFEE34FFFE900DCFEEF0A3EFF0900DD28F
:1045D300E024FCF0900DD1E034FFF0900DC9E0FF32
:1045E300900DCDEFF0900DCCE0FF900DC9EFF09062
:1045F3000DCDE0FF900DCCEFF0900DCAE0FF900DD4
:10460300CDEFF0900DCBE0FF900DCAEFF0900DCD04
:10461300E0FF900DCBEFF0900DC9E0FCA3E0FDA30C
:10462300E0FEA3E0FF900B00122DA3126063901035
:1046330026745AF090102674A5F090102074A1F0FF
:10464300901022E0FFEF30E2F7900DCFE0FEA3E001
:10465300FFEEFF7E00901029EFF0900DCFE0FEA358
:10466300E0FFEF54FFFF90102AEFF0900DC9E0FF39
:1046730090102BEFF0900DCAE0FF90102CEFF0900C
:104683000DCBE0FF90102DEFF0900DCCE0FF9010DC
:104693002EEFF090102F740AF000901022E0FFEF3D
:1046A30030E7F700900DD1E0FEA3E0FF8F828E8309
:1046B300122D93900B04122DA3901020E4F0901070
:1046C3002F7430F0900B04E0FCA3E0FDA3E0FEA305
:1046D300E0FF900B00E0F8A3E0F9A3E0FAA3E0FB0E
:1046E300C3122D5C600280FE900DCEE004F0024503
:0146F300685E
:0146F40022A3
:084F4C00900E2AEEF0A3EFF035
:104F5400900E2AE0FEA3E0FF900E31EEF0A3EFF0F6
:104F6400E5E830E403D38001C39209126063300999
:104F74000E901026745AF090102674A5F080379085
:104F84000E2AE0FEA3E0FFEE44F0FE900E31EEF0B8
:104F9400A3EFF0901026747DF09010267439F090F1
:104FA400103674D0F090103674DCF0901037E0FFB7
:104FB400EF4420FFEFF0900E31E0FEA3E0FF8F827C
:104FC4008E83122D93900B08122DA3901020E4F0E1
:104FD40090102F7430F0900B08E0FCA3E0FDA3E0E8
:104FE400FEA3E0FF900E2C122DA3900E2CE0FF9058
:104FF4000E30EFF0900E2FE0FF900E2CEFF0900E9D
:1050040030E0FF900E2FEFF0900E2DE0FF900E3069
:10501400EFF0900E2EE0FF900E2DEFF0900E30E0AA
:10502400FF900E2EEFF0900E2CE0FCA3E0FDA3E029
:10503400FEA3E0FF900B0C122DA3900B0CE0FCA33D
:08504400E0FDA3E0FEA3E0FF84
:01504C002241
:0A0003009000E0EFF09000E1EDF056
:10000D009000E47403F0A37433F09000EA74FFF0F1
:10001D00A374FFF09000FA74FFF0A374FFF090004A
:10002D00FCE4F0A3E4F0902F55E0FF9000F8EFF022
:10003D0075F219902F457410F0902F46E0FF900047
:10004D00F9EFF09000E1E0FFEF6006902F4674A805
:10005D00F0439D04900B1CE0FFEF5403FFEF429D16
:10006D00439C80E59C54F0FFEF4401F59C43DF80F9
:10007D0075DE1E9000F4E4F0A37407F09000E6E442
:10008D00F0A3E4F09000E6E0FEA3E0FFC3EF9410D0
:10009D00EE940040030203F875F2289000F4E0FEA0
:1000AD00A3E0FFEF540FFF902F55EFF07F2C7E0153
:1000BD001259F69000E8E4F0A3E4F09000E8E0FEB9
:1000CD00A3E0FFC3EF9410EE94005038439C40E53D
:1000DD009C30E4FB9000E8E0FEA3E0FFEF25E0FF9D
:1000ED00EE33FE74402FF58274003EF583E59FF0EC
:1000FD00A3E59EF09000E9E004F070069000E8E0C2
:10010D0004F080B79000FA74FFF0A374FFF0900034
:10011D00FCE4F0A3E4F09000E2E4F0A3E4F090003E
:10012D00E8E4F0A3E4F09000E8E0FEA3E0FFC3EF05
:10013D009410EE94004003020250439C40E59C3025
:10014D00E4FB9000E8E0FEA3E0FFEF25E0FFEE33D7
:10015D00FE74402FF58274003EF583E59FF0A3E514
:10016D009EF09000E8E0FEA3E0FFEF25E0FFEE3308
:10017D00FE74402FF58274003EF583E0FEA3E0FF90
:10018D009000E3E02FF09000E2E03EF09000E8E018
:10019D00FEA3E0FFEF25E0FFEE33FE74402FF58266
:1001AD0074003EF583E0FEA3E0FF9000FAE0FCA3AF
:1001BD00E0FDC3EF9DEE9C50269000E8E0FEA3E02D
:1001CD00FFEF25E0FFEE33FE74402FF58274003E05
:1001DD00F583E0FEA3E0FF9000FAEEF0A3EFF090C0
:1001ED0000E8E0FEA3E0FFEF25E0FFEE33FE7440F4
:1001FD002FF58274003EF583E0FEA3E0FF9000FC36
:10020D00E0FCA3E0FDD3EF9DEE9C40269000E8E0DE
:10021D00FEA3E0FFEF25E0FFEE33FE74402FF582E5
:10022D0074003EF583E0FEA3E0FF9000FCEEF0A32A
:10023D00EFF09000E9E004F070069000E8E004F0C3
:10024D000201339000F4E0FEA3E0FF7E00EF540FB7
:10025D00FF9000EEEEF0A3EFF09000E2E0FEA3E0E1
:10026D00FFEEC4F854F0C868FEEFC4540F48FF9079
:10027D0000E2EEF0A3EFF09000E2E0FEA3E0FF7EDF
:10028D0000EF540FFFC3EF9402EE9400400E900068
:10029D00E3E004F070069000E2E004F09000E2E08C
:1002AD00FCA3E0FD9000EEE0FEA3E0FFEF25E0FFF4
:1002BD00EE33FE74002FF58274003EF583ECF0A34F
:1002CD00EDF09000E4E0FEA3E0FF9000E2E0FCA37F
:1002DD00E0FDD3ED9FEC9E40219000E4E0FEA3E015
:1002ED00FF9000E2E0FCA3E0FDC3ED9FFFEC9EFE5E
:1002FD009000ECEEF0A3EFF080409000E4E0FEA360
:10030D00E0FF9000E2E0FCA3E0FDC3ED9FEC9E500A
:10031D00219000E2E0FEA3E0FF9000E4E0FCA3E00A
:10032D00FDC3ED9FFFEC9EFE9000ECEEF0A3EFF011
:10033D0080089000ECE4F0A3E4F09000ECE0FCA366
:10034D00E0FD9000EEE0FEA3E0FFEF25E0FFEE33D1
:10035D00FE74202FF58274003EF583ECF0A3EDF0D2
:10036D009000EAE0FEA3E0FF9000ECE0FCA3E0FDCE
:10037D00C3ED9FEC9E50209000ECE0FEA3E0FF90BB
:10038D0000EAEEF0A3EFF09000F4E0FEA3E0FF90A2
:10039D0000F6EEF0A3EFF09000FAE0FEA3E0FF9080
:1003AD0000FCE0FCA3E0FDC3ED9FFDEC9EFC900086
:1003BD00EEE0FEA3E0FFEF25E0FFEE33FE74A02F8D
:1003CD00F58274003EF583ECF0A3EDF09000F5E0BE
:1003DD0024FFF09000F4E034FFF09000E7E004F02B
:1003ED0070069000E6E004F00200919000F6E0FE49
:1003FD00A3E0FF7E00EF540FFFEE3395E0FDFC9080
:10040D0000F0122DA39000F0E0FCA3E0FDA3E0FEB0
:10041D00A3E0FFEF4400FFEE44FFFEED44FFFDECD3
:10042D0044FFFC9000F0122DA39000E0E0FFEF7070
:10043D001B9000F0E0FCA3E0FDA3E0FEA3E0FF9025
:10044D000DC5122DA37F1C7E0412454B9000F6E0C6
:10045D00FEA3E0FFEF540FFF902F55EFF07F2C7EA2
:10046D00011259F69000F0E0FCA3E0FDA3E0FEA31D
:10047D00E0FFEF54FFFBEE5400FAED5400F9EC549D
:10048D0000F8902F55E0FFE4FCFDFEC3122D5C60DB
:10049D0001009000E0E0FFEF700302073A7BFF7A66
:1004AD000E79641222557BFF7A0E79671222557BE5
:1004BD00FF7A0E79789000F8E0FFEF54FFFF7E0091
:1004CD00900D20EEF0A3EFF01222559000E1E0FF29
:1004DD00EF600B7BFF7A0E79A112225580097BFF0D
:1004ED007A0E79BE1222557BFF7A0E79DBE5DE544A
:1004FD00FFFF7E00900D20EEF0A3EFF01222557B52
:10050D00FF7A0F79059000E4E0FEA3E0FF900D2047
:10051D00EEF0A3EFF01222557BFF7A0F7923122212
:10052D00559000E8E4F0A3E4F09000E8E0FEA3E0CD
:10053D00FFC3EF9410EE9400503F7BFF7A0F793D8F
:10054D009000E8E0FEA3E0FFEF25E0FFEE33FE7440
:10055D00002FF58274003EF583E0FEA3E0FF900DC1
:10056D0020EEF0A3EFF01222559000E9E004F070B8
:10057D00069000E8E004F080B07BFF7A0E796412FB
:10058D0022557BFF7A0F79421222559000E8E4F054
:10059D00A3E4F09000E8E0FEA3E0FFC3EF9410EEBB
:1005AD009400503F7BFF7A0F793D9000E8E0FEA369
:1005BD00E0FFEF25E0FFEE33FE74202FF58274008F
:1005CD003EF583E0FEA3E0FF900D20EEF0A3EFF0EB
:1005DD001222559000E9E004F070069000E8E00466
:1005ED00F080B07BFF7A0E79641222557BFF7A0F73
:1005FD0079601222559000E8E4F0A3E4F09000E851
:10060D00E0FEA3E0FFC3EF9410EE9400503F7BFF9C
:10061D007A0F793D9000E8E0FEA3E0FFEF25E0FFC3
:10062D00EE33FE74A02FF58274003EF583E0FEA339
:10063D00E0FF900D20EEF0A3EFF01222559000E9AF
:10064D00E004F070069000E8E004F080B07BFF7AE3
:10065D000E79641222557BFF7A0F7980902F55E029
:10066D00FFEF54FFFF7E00900D20EEF0A3EFF01290
:10067D0022559000E8E4F0A3E4F09000E8E0FEA33A
:10068D00E0FFC3EF9410EE94005038439C40E59C7E
:10069D0030E4FB9000E8E0FEA3E0FFEF25E0FFEE85
:1006AD0033FE74402FF58274003EF583E59FF0A371
:1006BD00E59EF09000E9E004F070069000E8E0049B
:1006CD00F080B77BFF7A0F79AB1222559000E8E4EA
:1006DD00F0A3E4F09000E8E0FEA3E0FFC3EF941078
:1006ED00EE9400503F7BFF7A0F793D9000E8E0FEDD
:1006FD00A3E0FFEF25E0FFEE33FE74402FF582748B
:10070D00003EF583E0FEA3E0FF900D20EEF0A3EF99
:10071D00F01222559000E9E004F070069000E8E038
:10072D0004F080B07BFF7A0E796412225575F219B0
:10073D009000E1E0FFEF600A9000F9E0FF902F4696
:03074D00EFF000CA
:010750002286
:05075100900D6BEFF0BC
:10075600900D6E7404F0A374CDF0900D7474FFF0D8
:10076600A374FFF0900D8374FFF0A374FFF0900D57
:1007760085E4F0A3E4F0902F58E0FF900D82EFF0AF
:1007860075F219439D05439C80E59C54F0FFEF44A8
:1007960002F59C43DF8075DE1E900D7EE4F0A374A7
:1007A60007F0900D70E4F0A3E4F0900D70E0FEA366
:1007B600E0FFC3EF9410EE94004003020B1775F2AE
:1007C60028900D7EE0FEA3E0FFEF540FFF902F5818
:1007D600EFF07F2C7E011259F6900D72E4F0A3E43F
:1007E600F0900D72E0FEA3E0FFC3EF9410EE9400CC
:1007F6005038439C40E59C30E4FB900D72E0FEA32C
:10080600E0FFEF25E0FFEE33FE74402FF582740023
:100816003EF583E59FF0A3E59EF0900D73E004F0AE
:100826007006900D72E004F080B7900D8374FFF0AF
:10083600A374FFF0900D85E4F0A3E4F0900D6CE452
:10084600F0A3E4F0900D72E4F0A3E4F0900D72E0F2
:10085600FEA3E0FFC3EF9410EE9400400302096F7D
:10086600439C40E59C30E4FB900D72E0FEA3E0FF64
:10087600EF25E0FFEE33FE74402FF58274003EF55F
:1008860083E59FF0A3E59EF0900D72E0FEA3E0FFE6
:10089600EF25E0FFEE33FE74402FF58274003EF53F
:1008A60083E0FEA3E0FF900D6DE02FF0900D6CE06D
:1008B6003EF0900D72E0FEA3E0FFEF25E0FFEE3381
:1008C600FE74402FF58274003EF583E0FEA3E0FF40
:1008D600900D83E0FCA3E0FDC3EF9DEE9C502690B7
:1008E6000D72E0FEA3E0FFEF25E0FFEE33FE74405D
:1008F6002FF58274003EF583E0FEA3E0FF900D83A2
:10090600EEF0A3EFF0900D72E0FEA3E0FFEF25E01E
:10091600FFEE33FE74402FF58274003EF583E0FE51
:10092600A3E0FF900D85E0FCA3E0FDD3EF9DEE9CD8
:100936004026900D72E0FEA3E0FFEF25E0FFEE33C8
:10094600FE74402FF58274003EF583E0FEA3E0FFBF
:10095600900D85EEF0A3EFF0900D73E004F07006B5
:10096600900D72E004F0020852900D7EE0FEA3E0C6
:10097600FF7E00EF540FFF900D78EEF0A3EFF0909E
:100986000D6CE0FEA3E0FFEEC4F854F0C868FEEF7D
:10099600C4540F48FF900D6CEEF0A3EFF0900D6C71
:1009A600E0FEA3E0FF7E00EF540FFFC3EF9402EEDC
:1009B6009400400E900D6DE004F07006900D6CE012
:1009C60004F0900D6CE0FCA3E0FD900D78E0FEA332
:1009D600E0FFEF25E0FFEE33FE74602FF582740032
:1009E6003EF583ECF0A3EDF0900D6EE0FEA3E0FF84
:1009F600900D6CE0FCA3E0FDD3ED9FEC9E402190B2
:100A06000D6EE0FEA3E0FF900D6CE0FCA3E0FDC3DD
:100A1600ED9FFFEC9EFE900D76EEF0A3EFF080408A
:100A2600900D6EE0FEA3E0FF900D6CE0FCA3E0FDF0
:100A3600C3ED9FEC9E5021900D6CE0FEA3E0FF906D
:100A46000D6EE0FCA3E0FDC3ED9FFFEC9EFE900D56
:100A560076EEF0A3EFF08008900D76E4F0A3E4F0D4
:100A6600900D76E0FCA3E0FD900D78E0FEA3E0FF9C
:100A7600EF25E0FFEE33FE74802FF58274003EF51D
:100A860083ECF0A3EDF0900D74E0FEA3E0FF900D73
:100A960076E0FCA3E0FDC3ED9FEC9E5020900D7622
:100AA600E0FEA3E0FF900D74EEF0A3EFF0900D7E54
:100AB600E0FEA3E0FF900D80EEF0A3EFF0900D8333
:100AC600E0FEA3E0FF900D85E0FCA3E0FDC3ED9FF3
:100AD600FDEC9EFC900D78E0FEA3E0FFEF25E0FF25
:100AE600EE33FE74C02FF58274003EF583ECF0A35E
:100AF600EDF0900D7FE024FFF0900D7EE034FFF0E6
:100B0600900D71E004F07006900D70E004F002079D
:100B1600B0900D80E0FEA3E0FF7E00EF540FFFEEE5
:100B26003395E0FDFC900D7A122DA3900D7AE0FC32
:100B3600A3E0FDA3E0FEA3E0FFEF4400FFEE44FFC9
:100B4600FEED44FFFDEC44FFFC900D7A122DA390C0
:100B56000D6BE0FFEF701B900D7AE0FCA3E0FDA3A8
:100B6600E0FEA3E0FF900DC5122DA37F347E041294
:100B7600454B900D80E0FEA3E0FFEF540FFF902F52
:100B860058EFF07F2C7E011259F6900D7AE0FCA307
:100B9600E0FDA3E0FEA3E0FFEF54FFFBEE5400FAF6
:100BA600ED5400F9EC5400F8902F55E0FFE4FCFDFD
:100BB600FEC3122D5C600100900D6BE0FFEF700329
:100BC600020E3D7BFF7A0E79641222557BFF7A0F67
:100BD60079C51222557BFF7A0F79D6900D82E0FFF8
:100BE600EF54FFFF7E00900D20EEF0A3EFF01222EF
:100BF600557BFF7A107904E5DE54FFFF7E00900DE9
:100C060020EEF0A3EFF01222557BFF7A10792F9099
:100C16000D6EE0FEA3E0FF900D20EEF0A3EFF012C4
:100C260022557BFF7A10794E122255900D72E4F010
:100C3600A3E4F0900D72E0FEA3E0FFC3EF9410EE84
:100C46009400503F7BFF7A0F793D900D72E0FEA332
:100C5600E0FFEF25E0FFEE33FE74602FF5827400AF
:100C66003EF583E0FEA3E0FF900D20EEF0A3EFF04B
:100C7600122255900D73E004F07006900D72E00498
:100C8600F080B07BFF7A0E79641222557BFF7A10D2
:100C96007969122255900D72E4F0A3E4F0900D727A
:100CA600E0FEA3E0FFC3EF9410EE9400503F7BFFFD
:100CB6007A0F793D900D72E0FEA3E0FFEF25E0FF8D
:100CC600EE33FE74802FF58274003EF583E0FEA3BA
:100CD600E0FF900D20EEF0A3EFF0122255900D7379
:100CE600E004F07006900D72E004F080B07BFF7AAD
:100CF6000E79641222557BFF7A107988122255905C
:100D06000D72E4F0A3E4F0900D72E0FEA3E0FFC3E1
:100D1600EF9410EE9400503F7BFF7A0F793D900DD3
:100D260072E0FEA3E0FFEF25E0FFEE33FE74C02F76
:100D3600F58274003EF583E0FEA3E0FF900D20EE01
:100D4600F0A3EFF0122255900D73E004F0700690B8
:100D56000D72E004F080B07BFF7A0E7964122255A2
:100D66007BFF7A1079A9902F58E0FFEF54FFFF7EA2
:100D760000900D20EEF0A3EFF0122255900D72E4D4
:100D8600F0A3E4F0900D72E0FEA3E0FFC3EF941031
:100D9600EE94005038439C40E59C30E4FB900D7285
:100DA600E0FEA3E0FFEF25E0FFEE33FE74402FF5F3
:100DB6008274003EF583E59FF0A3E59EF0900D73E7
:100DC600E004F07006900D72E004F080B77BFF7AC5
:100DD6000F79AB122255900D72E4F0A3E4F0900D5A
:100DE60072E0FEA3E0FFC3EF9410EE9400503F7B49
:100DF600FF7A0F793D900D72E0FEA3E0FFEF25E04C
:100E0600FFEE33FE74402FF58274003EF583E0FE5C
:100E1600A3E0FF900D20EEF0A3EFF0122255900D07
:100E260073E004F07006900D72E004F080B07BFF72
:090E36007A0E79641222550000C5
:010E3F002290
:0832EB00900E33EEF0A3EFF0AA
:1032F300900E39E4F0A3E4F0E5E830E403D3800171
:10330300C3920A200A030234127BFF7A1079D9127E
:1033130022557BFF7A1079DC900E33E0FEA3E0FFA9
:10332300900D20EEF0A3EFF0122255900E33E0FE45
:10333300A3E0FF900E39EEF0A3EFF0900E33E0FE22
:10334300A3E0FFEF2400FFEE3402FE900E39E0FC11
:10335300A3E0FDC3ED9FEC9E400302352B7BFF7A78
:103363001079FF900E39E0FEA3E0FF900D20EEF000
:10337300A3EFF0122255900E3BE4F0900E3BE0FFDA
:103383007E00C3EF9410EE648094805075900E39E4
:10339300E0FEA3E0FFEF2400FFEE34FCFEEF780233
:1033A300CEC313CE13D8F9FFEF7802C333CE33CE97
:1033B300D8F9FF741D2FF582740B3EF583E0FCA34F
:1033C300E0FDA3E0FEA3E0FF900E35122DA37BFFEB
:1033D3007A11790C900E35E0FCA3E0FDA3E0FEA387
:1033E300E0FF900D20122DA3122255900E3AE024F7
:1033F30004F0900E39E03400F0900E3BE004F0024C
:10340300337E7BFF7A0E796412225502333E22907B
:103413000E33E0FEA3E0FFEE44F0FE900E33EEF039
:10342300A3EFF07BFF7A1079D91222557BFF7A1034
:1034330079DC900E33E0FEA3E0FF900D20EEF0A3C5
:10344300EFF0122255900E33E0FEA3E0FF900E3909
:10345300EEF0A3EFF0900E33E0FEA3E0FFEF2400C5
:10346300FFEE3402FE900E39E0FCA3E0FDC3ED9FB6
:10347300EC9E400302352B7BFF7A1079FF900E39C7
:10348300E0FEA3E0FF900D20EEF0A3EFF012225533
:10349300900E3BE4F0900E3BE0FF7E00C3EF9410F0
:1034A300EE648094805075900E39E0FEA3E0FFEF48
:1034B3002400FFEE340CFEEF7802CEC313CE13D8F4
:1034C300F9FFEF7802C333CE33CED8F9FF741D2F43
:1034D300F582740B3EF583E0FCA3E0FDA3E0FEA3BD
:1034E300E0FF900E35122DA37BFF7A11790C900E1D
:1034F30035E0FCA3E0FDA3E0FEA3E0FF900D201266
:103503002DA3122255900E3AE02404F0900E39E0D8
:103513003400F0900E3BE004F00234987BFF7A0E07
:083523007964122255023458AC
:01352B00227D
:08489700900E4EEEF0A3EFF0CD
:10489F00E5E830E403D38001C3920B200B030249F8
:1048AF0062900E4EE0FEA3E0FFEEC313FF7E00EF1B
:1048BF007F0025E0FE900E54EEF0A3EFF0900E4E29
:1048CF00E0FEA3E0FFEF2400FFEE3402FE900E5453
:1048DF00E0FCA3E0FDC3ED9FEC9E4003024A2C9049
:1048EF000E54E0FEA3E0FF124F4C900E50122DA37A
:1048FF00900E50E0FCA3E0FDA3E0FEA3E0FFC00498
:10490F00C005C006C007900E54E0FEA3E0FFEF24E1
:10491F0000FFEE34FCFEEF7802CEC313CE13D8F9AE
:10492F00FFEF7802C333CE33CED8F9FF741D2FF5C6
:10493F0082740B3EF583D007D006D005D004122D1C
:10494F00A3900E55E02404F0900E54E03400F002D2
:10495F0048CC22900E4EE0FEA3E0FFEE44F0FE9016
:10496F000E4EEEF0A3EFF0900E4EE0FEA3E0FFEE42
:10497F00C313FF7E00EF7F0025E0FE900E54EEF094
:10498F00A3EFF0900E4EE0FEA3E0FFEF2400FFEE4A
:10499F003402FE900E54E0FCA3E0FDC3ED9FEC9EAD
:1049AF00507B900E54E0FEA3E0FFEF2400FFEE34A7
:1049BF0010FE124F4C900E50122DA3900E50E0FC93
:1049CF00A3E0FDA3E0FEA3E0FFC004C005C006C046
:1049DF0007900E54E0FEA3E0FFEF2400FFEE340C2F
:1049EF00FEEF7802CEC313CE13D8F9FFEF7802C3D0
:1049FF0033CE33CED8F9FF741D2FF582740B3EF5ED
:104A0F0083D007D006D005D004122DA3900E55E009
:0D4A1F002404F0900E54E03400F00249929F
:014A2C002267
:1030A700900E75E4F0A3E4F07BFF7A1179131222F6
:1030B700557BFF7A1179171222557F1C7E04124F18
:1030C7004C900E71122DA37BFF7A117931900E71FE
:1030D700E0FCA3E0FDA3E0FEA3E0FF900D20122D8E
:1030E700A31222557BFF7A117954902F55E0FFEFF9
:1030F70054FFFF7E00900D20EEF0A3EFF012225553
:103107007BFF7A1079D91222557F347E04124F4CF7
:10311700900E71122DA37BFF7A117975900E71E0D5
:10312700FCA3E0FDA3E0FEA3E0FF900D20122DA37A
:103137001222557BFF7A11799D902F58E0FFEF54AB
:10314700FFFF7E00900D20EEF0A3EFF01222557BDB
:10315700FF7A1079D91222557F0C7E04124F4C90BA
:103167000E71122DA37BFF7A1179C3900E71E0FCCB
:10317700A3E0FDA3E0FEA3E0FF900D20122DA31214
:1031870022557BFF7A1179E6902F53E0FFEF54FF2A
:10319700FF7E00900D20EEF0A3EFF01222557BFF8B
:1031A7007A1079D91222557F047E04124F4C900E63
:1031B70071122DA37BFF7A12790C900E71E0FCA39C
:1031C700E0FDA3E0FEA3E0FF900D20122DA3122245
:1031D700557BFF7A12792E902F52E0FFEF54FFFFB5
:1031E7007E00900D20EEF0A3EFF01222557BFF7AC0
:1031F7001079D91222557F2C7E04124F4C900E71F4
:10320700122DA37BFF7A127953900E71E0FCA3E095
:10321700FDA3E0FEA3E0FF900D20122DA31222557F
:103227007BFF7A127977902F57E0FFEF54FFFF7EED
:1032370000900D20EEF0A3EFF01222557BFF7A10DD
:1032470079D91222557F247E04124F4C900E7112A9
:103257002DA37BFF7A12799E900E71E0FCA3E0FD0F
:10326700A3E0FEA3E0FF900D20122DA31222557BB1
:10327700FF7A1279C1902F56E0FFEF54FFFF7E00CF
:10328700900D20EEF0A3EFF01222557BFF7A0E7916
:10329700641222557F447E04124F4C900E71122DFA
:1032A700A37BFF7A1279E7900E71E0FCA3E0FDA300
:1032B700E0FEA3E0FF900D20122DA31222557BFF05
:1032C7007A137900902F5BE0FFEF54FFFF7E0090A9
:1032D7000D20EEF0A3EFF01222557BFF7A1079D97B
:0332E7001222555B
:0132EA0022C1
:053DE000900E3CEFF025
:103DE50075F21975F228900B10E0FEA3E0FFEEA224
:103DF500E713FEEF13FF900E41EEF0A3EFF0900BEB
:103E050010E0FEA3E0FFEF7807C333CE33CED8F939
:103E1500FF900E43EEF0A3EFF0900E43E0FEA3E01B
:103E2500FF900B12E0FCA3E0FD7C00ED547FFDEE5E
:103E35004CFEEF4DFF900E43EEF0A3EFF0900E41D8
:103E4500E0FEA3E0FF7E00EF5407FF900E41EEF089
:103E5500A3EFF0900E43E0FEA3E0FF7E00900E433B
:103E6500EEF0A3EFF0900E41E0FEA3E0FF902F539C
:103E7500EFF07F2C7E011259F6900E43E0FEA3E091
:103E8500FF902F52EFF07F2C7E011259F6900E41D4
:103E9500E0FEA3E0FF7E00EE3395E0FDFC900E3DD5
:103EA500122DA3900E3DE0FCA3E0FDA3E0FEA3E0F0
:103EB500FFEF4400FFEE44FFFEED44FFFDEC44FF41
:103EC500FC900E3D122DA3900E3CE0FFEF701B9071
:103ED5000E3DE0FCA3E0FDA3E0FEA3E0FF900DC5D1
:103EE500122DA37F0C7E0412454B900E43E0FEA3DA
:103EF500E0FF7E00EE3395E0FDFC900E3D122DA314
:103F0500900E3DE0FCA3E0FDA3E0FEA3E0FFEF443F
:103F150000FFEE44FFFEED44FFFDEC44FFFC900E78
:103F25003D122DA3900E3CE0FFEF701B900E3DE07F
:103F3500FCA3E0FDA3E0FEA3E0FF900DC5122DA3B9
:103F45007F047E0412454B900E3CE0FFEF60737BCF
:103F5500FF7A13791C1222557BFF7A1379201222DE
:103F6500557BFF7A137931900B10E0FEA3E0FF90AB
:103F75000D20EEF0A3EFF0900B12E0FEA3E0FF9012
:103F85000D22EEF0A3EFF01222557BFF7A1379593B
:103F9500902F53E0FFEF54FFFF7E00900D20EEF0D1
:103FA500A3EFF01222557BFF7A13797F902F52E011
:103FB500FFEF54FFFF7E00900D20EEF0A3EFF0120F
:033FC50022550082
:013FC80022D6
:052E2600900DF2EFF039
:102E2B00900B14E0FEA3E0FF7E00EF5407FF900B26
:102E3B0014EEF0A3EFF0900B14E0FEA3E0FF900D67
:102E4B00F3EEF0A3EFF0900B16E0FEA3E0FF7E0095
:102E5B00EF540FFF900B16EEF0A3EFF0900B18E072
:102E6B00FEA3E0FF7E00EF5407FF900B18EEF0A3DC
:102E7B00EFF0900B16E0FEA3E0FFEF7803C333CE29
:102E8B0033CED8F9FF900B18E0FCA3E0FDEE4CFE1F
:102E9B00EF4DFF900DF5EEF0A3EFF0900DF5E0FE8A
:102EAB00A3E0FF7E00EF547FFF900DF5EEF0A3EF54
:102EBB00F075F2197F2C7E011259F675F228900DE0
:102ECB00F3E0FEA3E0FFEEA2E713FEEF13FF900D7E
:102EDB00FBEEF0A3EFF0900DF3E0FEA3E0FFEF7835
:102EEB0007C333CE33CED8F9FF900DFDEEF0A3EF31
:102EFB00F0900DFDE0FEA3E0FF900DF5E0FCA3E0EC
:102F0B00FD7C00ED547FFDEE4CFEEF4DFF900DFD73
:102F1B00EEF0A3EFF0900DFBE0FEA3E0FF7E00EFE1
:102F2B005403FF900DFBEEF0A3EFF0900DFDE0FED0
:102F3B00A3E0FF7E00900DFDEEF0A3EFF0900DFBF4
:102F4B00E0FEA3E0FF902F57EFF07F2C7E0112598C
:102F5B00F6900DFDE0FEA3E0FF902F56EFF07F2CD7
:102F6B007E011259F6900DFBE0FEA3E0FF7E00EE12
:102F7B003395E0FDFC900DF7122DA3900DF7E0FCBF
:102F8B00A3E0FDA3E0FEA3E0FFEF4400FFEE44FF50
:102F9B00FEED44FFFDEC44FFFC900DF7122DA390CA
:102FAB000DF2E0FFEF701B900DF7E0FCA3E0FDA32B
:102FBB00E0FEA3E0FF900DC5122DA37F2C7E041223
:102FCB00454B900DFDE0FEA3E0FF7E00EE3395E058
:102FDB00FDFC900DF7122DA3900DF7E0FCA3E0FD87
:102FEB00A3E0FEA3E0FFEF4400FFEE44FFFEED4441
:102FFB00FFFDEC44FFFC900DF7122DA3900DF2E0BA
:10300B00FFEF701B900DF7E0FCA3E0FDA3E0FEA328
:10301B00E0FF900DC5122DA37F247E0412454B902B
:10302B000DF2E0FFEF60737BFF7A13791C122255D0
:10303B007BFF7A1379A41222557BFF7A1379B69012
:10304B000DF3E0FEA3E0FF900D20EEF0A3EFF09068
:10305B000DF5E0FEA3E0FF900D22EEF0A3EFF012D2
:10306B0022557BFF7A1379DE902F57E0FFEF54FF49
:10307B00FF7E00900D20EEF0A3EFF01222557BFFA8
:10308B007A147905902F56E0FFEF54FFFF7E0090E6
:0B309B000D20EEF0A3EFF01222550014
:0130A6002207
:054A2D00900E0AEFF0FD
:104A320075F21975F228900B1AE0FFEF3395E0FE3C
:104A4200EFC4F8540FC868FFEEC454F048FE7E006D
:104A5200EF54F0FF900E0FEEF0A3EFF0900B1BE07F
:104A6200FFEF540FFFEF3395E0FE900E11EEF0A32F
:104A7200EFF0900E11E0FEA3E0FF900E0FE0FCA31A
:104A8200E0FDEC4EFEED4FFF900E13EEF0A3EFF0C3
:104A9200900E13E0FEA3E0FF7E00900E13EEF0A353
:104AA200EFF0900E13E0FEA3E0FF902F5BEFF07F9C
:104AB2002C7E011259F6900E13E0FEA3E0FF7E0059
:104AC200EE3395E0FDFC900E0B122DA3900E0BE041
:104AD200FCA3E0FDA3E0FEA3E0FFEF4400FFEE44F1
:104AE200FFFEED44FFFDEC44FFFC900E0B122DA3E4
:104AF200900E0AE0FFEF701B900E0BE0FCA3E0FDAE
:104B0200A3E0FEA3E0FF900DC5122DA37F447E0417
:104B120012454B900E0AE0FFEF7003024BB07BFF91
:104B22007A13791C1222557BFF7A14792B122255A3
:104B32007BFF7A14793A900B1AE0FFEF75F01012AE
:104B42002B77FFEF3395E0FE900D20EEF0A3EFF010
:104B5200900B1AE0FFEF75F010122B77FFEF3395F1
:104B6200E0FE900D22EEF0A3EFF0900B1BE0FFEFC2
:104B72003395E0FE900D24EEF0A3EFF0900B1BE0D6
:104B8200FFEF3395E0FE900D26EEF0A3EFF0122238
:104B9200557BFF7A147968902F5BE0FFEF54FFFF9B
:0F4BA2007E00900D20EEF0A3EFF01222550000E0
:014BB10022E1
:055AC400900EB2EFF0AE
:105AC900900EB2E0FF7E00D3EF9405EE64809480DF
:105AD9005038758A00900EB3E5C8F0900EB3E0FF18
:105AE900EF54C7FF900EB3EFF0900EB3E0FF900EA6
:105AF900B2E0FEEE33333354F8FEEF4EFF900EB3AF
:105B0900EFF0900EB3E0FF8FC822900EB2E0FF7E57
:0A5B190000EF64064E7003758A0366
:015B2300225F
:0F521700900E81EFF0900E82EDF0900E83EBF091
:10522600900E81E0FF7E00EF4E702F900E83E0FF20
:105236007E00EF4E700453C8BF22900E83E0FF7EBF
:1052460000EF64014E60030252D8900E83E0FFEF38
:10525600C4333354C0FFEF42C822900E81E0FF7E74
:1052660000EF64014E706B900E83E0FF7E00EF4E00
:10527600700443C80422900E83E0FF7E00EF6401B1
:105286004E704F900E84E5C8F0900E84E0FF900EAD
:1052960083E0FEEE25E025E0FEEEF4FEEF5EFF90F5
:1052A6000E84EFF0900E84E0FFEF54C7FF900E845B
:1052B600EFF0900E84E0FF900E82E0FEEE33333383
:1052C60054F8FEEF4EFF900E84EFF0900E84E0FF50
:0252D6008FC87F
:0152D80022B3
:1052D900E5C8131313541FFF7E007E00EF5407FF28
:1052E900EE3395E0FDFC900E56122DA3900E5A1246
:1052F9002DAF000000007F057E007D007C00900E30
:1053090056E0F8A3E0F9A3E0FAA3E0FBD3122D5C81
:10531900400A900E56122DAF00000005900E56E07F
:10532900F8A3E0F9A3E0FAA3E0FBC374059BFFE44B
:105339009AFEE499FDE498FC900E56122DA3E58A95
:105349005403FFEF122DE0535A00537F030000531B
:1053590089900E56E0FCA3E0FDA3E0FEA3E0FFA9BF
:10536900077F007E247DF47C00A801122D6D900E2C
:105379005A122DA3800A900E5A122DAF00008000F8
:0E538900900E5AE0FCA3E0FDA3E0FEA3E0FFBF
:0153970022F3
:07600100440D6300000000E4
:10611A00900D4EE4F0A3E4F09010287403F0901070
:0A612A002974FFF090102AE4F0221F
:10591E00900E45EEF0A3EFF0900E47ECF0A3EDF0F5
:10592E00900E49EBF0A3EAF0A3E9F0900D4E74CC83
:10593E00F0A37433F0900E45E0FEA3E0FF900D50FF
:10594E00EEF0A3EFF0900E47E0FEA3E0FF900D52B5
:10595E00EEF0A3EFF0900E49E0FBA3E0FAA3E0F91E
:10596E00900D54EBF0A3EAF0A3E9F0900E4CE0FE9C
:0C597E00A3E0FF900D69EEF0A3EFF02213
:10196900900E20EEF0A3EFF0900E22EDF0900E23F2
:02197900EBF091
:10197B00900E24E4F0900E25E4F0A3E4F0900D52C9
:10198B00E0FEA3E0FF900D50E0FCA3E0FDD3ED9F44
:10199B00EC9E400280FE900E20E0FEA3E0FFEF6481
:1019AB00557003EE64AA6003021DAF900D4EE0FE6E
:1019BB00A3E0FFEF64337003EE64CC6003021DA35E
:1019CB00900D54E0FBA3E0FAA3E0F9900E27EBF0A7
:1019DB00A3EAF0A3E9F0900D50E0FEA3E0FFE4FCD6
:1019EB00FD900D48122DA3900D50E0FEA3E0FF904B
:1019FB000D52E0FCA3E0FDC3ED9FFFEC9EFEEF2438
:101A0B0001FFEE3400FEE4FCFD900D57122DA37F79
:101A1B00007E007D007C00900D57E0F8A3E0F9A359
:101A2B00E0FAA3E0FBD3122D5C5003021DA5900D31
:101A3B0050E0FEA3E0FFE4FCFD900D48E0F8A3E0CE
:101A4B00F9A3E0FAA3E0FBC3122D5C5003021DA522
:101A5B00900D52E0FEA3E0FFE4FCFD900D48E0F892
:101A6B00A3E0F9A3E0FAA3E0FBD3122D5C40030241
:101A7B001DA5900D54E0FBA3E0FAA3E0F9900D69CE
:101A8B00E0FEA3E0FFE92FF9EA3EFAC003C002C073
:101A9B0001900E27E0FBA3E0FAA3E0F9C3D082D0BC
:101AAB0083D0E0E99582EA95834003021DA5900D52
:101ABB0048E0FCA3E0FDA3E0FEA3E0FFEF54FFFF33
:101ACB00EE5401FEED5400FDEC5400FCEC4D4E4F7A
:101ADB006071900D48E0FCA3E0FDA3E0FEA3E0FFE6
:101AEB00EF54FFFFEE5401FEED5400FDEC5400FCEF
:101AFB00C3E49FFF74029EFE900E25EEF0A3EFF061
:101B0B00900D57E0FCA3E0FDA3E0FEA3E0FFC004B3
:101B1B00C005C006C007900E25E0FEA3E0FFAB0793
:101B2B00AA06E4F9F8D007D006D005D004C3EF9B82
:101B3B00FFEE9AFEED99FDEC98FC900D57122DA33C
:101B4B00021C697F007E027D007C00900D57E0F83F
:101B5B00A3E0F9A3E0FAA3E0FBC3122D5C502390A2
:101B6B000D57E0FCA3E0FDA3E0FEA3E0FF900E25E4
:101B7B00EEF0A3EFF0900D57122DAF000000000216
:101B8B001C697F007E087D007C00900D57E0F8A358
:101B9B00E0F9A3E0FAA3E0FBC3122D5C4077900DB4
:101BAB0048E0FCA3E0FDA3E0FEA3E0FFEF54FFFF42
:101BBB00EE5407FEED5400FDEC5400FC7B007A0064
:101BCB0079007800C3122D5C704B900E257408F0D1
:101BDB00A3E4F0900D57E0FCA3E0FDA3E0FEA3E02F
:101BEB00FFC004C005C006C007900E25E0FEA3E0B1
:101BFB00FFAB07AA06E4F9F8D007D006D005D0044E
:101C0B00C3EF9BFFEE9AFEED99FDEC98FC900D5700
:101C1B00122DA38049900E257402F0A3E4F0900DD1
:101C2B0057E0FCA3E0FDA3E0FEA3E0FFC004C0056A
:101C3B00C006C007900E25E0FEA3E0FFAB07AA0687
:101C4B00E4F9F8D007D006D005D004C3EF9BFFEE24
:101C5B009AFEED99FDEC98FC900D57122DA3900E6A
:101C6B0022E0FFEF603C900D48E0FCA3E0FDA3E019
:101C7B00FEA3E0FF900DE5122DA3900E25E0FEA331
:101C8B00E0FF900DE9EEF0A3EFF07F557EAA122551
:101C9B004F900E24EFF0900E24E0FFEF6004000253
:101CAB001DA5900E23E0FFEF7003021D62900E2323
:101CBB00E0FF7E00EF64014E7048900D48E0FCA3FE
:101CCB00E0FDA3E0FEA3E0FF900D89122DA3900E83
:101CDB0025E0FEA3E0FF900D8DEEF0A3EFF0900E4C
:101CEB0027E0FBA3E0FAA3E0F9900D8FEBF0A3EA5A
:101CFB00F0A3E9F07F557EAA121DB7900E24EFF0EA
:101D0B00804A900E23E0FFEFB4FF41900D48E0FCBA
:101D1B00A3E0FDA3E0FEA3E0FF900D89122DA3909D
:101D2B000E25E0FEA3E0FF900D8DEEF0A3EFF07B10
:101D3B00007A007900900D8FEBF0A3EAF0A3E9F0A5
:101D4B007F557EAA121DB7900E24EFF0900E24E063
:101D5B00FFEF6003008043900D48E0F8A3E0F9A388
:101D6B00E0FAA3E0FB900E25E0FEA3E0FFE4FCFD10
:101D7B00EB2FFFEA3EFEE93DFDE83CFC900D4812DF
:101D8B002DA3900E25E0FEA3E0FF900E28EE8FF022
:101D9B00122C13021A1A800280FE900D4EE4F0A34F
:0B1DAB00E4F0800280FE900E24E0FFB8
:011DB600220A
:08254F00900DE3EEF0A3EFF0A4
:10255700900DEBE4F0A3E4F0900DEDE4F0A3E4F0CC
:10256700900DEFE4F0900DF0E4F0900DF1E4F090B1
:102577000DEFE5A8F0900DF0E586F0900DE9E0FE8F
:10258700A3E0FFE4FCFD900DE5E0F8A3E0F9A3E08C
:10259700FAA3E0FBEF2BFBEE3AFAED39F9EC38F84A
:1025A700900D52E0FEA3E0FFE4FCFDD3122D5C404A
:1025B7004E900D52E0FEA3E0FFE4FCFD900DE5E038
:1025C700F8A3E0F9A3E0FAA3E0FBC3EF9BFFEE9AC1
:1025D700FEED99FDEC98FCEF2401FFEE3400FEEDD3
:1025E7003400FDEC3400FCEF54FFFFEE54FFFEED2A
:1025F7005400FDEC5400FC900DE9EEF0A3EFF090D1
:102607000DE9E0FEA3E0FFE4FCFD900DE5E0F8A393
:10261700E0F9A3E0FAA3E0FBEF2BFBEE3AFAED3982
:10262700F9EC38F8900D50E0FEA3E0FFE4FCFDC3A1
:10263700122D5C500C900DF17480F0900DF1E0FFBD
:1026470022900DE3E0FEA3E0FFEF64557003EE6414
:10265700AA6003022874900DE3E0FEA3E0FFEE6496
:102667009CFEEF6475FF900DE3EEF0A3EFF0900D85
:10267700E9E0FEA3E0FFEF4E700302286C900D50D7
:10268700E0FEA3E0FFE4FCFD900DE5E0F8A3E0F930
:10269700A3E0FAA3E0FBC3122D5C500302286C9061
:1026A7000D52E0FEA3E0FFE4FCFD900DE5E0F8A38A
:1026B700E0F9A3E0FAA3E0FBD3122D5C4003022864
:1026C7006C1260639010207481F00000009010205D
:1026D7007491F0900DE5E0FCA3E0FDA3E0FEA3E01C
:1026E700FF7810122D6DEF54FFFFEE5400FEED54EE
:1026F70000FDEC5400FC901028EFF0900DE5E0FC95
:10270700A3E0FDA3E0FEA3E0FF7808122D6DEF54D0
:10271700FFFFEE5400FEED5400FDEC5400FC90105A
:1027270029EFF0900DE5E0FCA3E0FDA3E0FEA3E0B8
:10273700FFEF54FFFFEE5400FEED5400FDEC540094
:10274700FC90102AEFF0900DE5E0FCA3E0FDA3E07C
:10275700FEA3E0FF900D5D122DA35386DFE586549F
:1027670020FF7E00EF4E6003022848900D4EE0FEEA
:10277700A3E0FFEF64337003EE64CC6003022840EC
:10278700900D50E0FEA3E0FFE4FCFD900DE5E0F8BE
:10279700A3E0F9A3E0FAA3E0FBC3122D5C50030208
:1027A7002838900D52E0FEA3E0FFE4FCFD900DE514
:1027B700E0F8A3E0F9A3E0FAA3E0FBD3122D5C5005
:1027C70070900DE3E0FEA3E0FFEE649CFEEF6475FE
:1027D700FFEF64557003EE64AA7044900DE9E0FEC4
:1027E700A3E0FFEF64007003EE6408701A43B901B9
:1027F700D29090102F744AF000901022E0FFEF3033
:10280700E7F7C29000801843B901D29090102F7457
:102817000AF000901022E0FFEF30E7F7C290009037
:102827001020E4F0901020E4F090102F7430F08026
:1028370016900DF17480F0800E900DF17480F08089
:1028470006900DF17401F0901020E4F090102F74B1
:1028570030F09010287403F090102974FFF0901056
:102867002AE4F0800E900DF17480F08006900DF14F
:0F2877007480F0900DF0E0FF8F86900DF1E0FF80
:01288600222F
:081DB700900D87EEF0A3EFF0A0
:101DBF00900D92122DAF00000000900D96E4F0A34D
:101DCF00E4F0900D98E4F0A3E4F0900D9AE4F09015
:101DDF000D9BE4F0900D9CE4F0A3E4F0900D9EE4D5
:101DEF00F0900D9AE5A8F0900D9BE586F0900D8D83
:101DFF00E0FEA3E0FFE4FCFD900D89E0F8A3E0F91D
:101E0F00A3E0FAA3E0FBEF2BFBEE3AFAED39F9EC86
:101E1F0038F8900D52E0FEA3E0FFE4FCFDD3122D45
:101E2F005C404E900D52E0FEA3E0FFE4FCFD900DF0
:101E3F0089E0F8A3E0F9A3E0FAA3E0FBC3EF9BFF6F
:101E4F00EE9AFEED99FDEC98FCEF2401FFEE3400C5
:101E5F00FEED3400FDEC3400FCEF54FFFFEE54FFB9
:101E6F00FEED5400FDEC5400FC900D8DEEF0A3EF51
:101E7F00F0900D8DE0FEA3E0FFE4FCFD900D89E0F6
:101E8F00F8A3E0F9A3E0FAA3E0FBEF2BFBEE3AFA9D
:101E9F00ED39F9EC38F8900D50E0FEA3E0FFE4FCCB
:101EAF00FDC3122D5C500C900D9E7480F0900D9E12
:101EBF00E0FF22900D87E0FEA3E0FFEF6455700373
:101ECF00EE64AA60030221D7900D87E0FEA3E0FF26
:101EDF00EE649CFEEF6475FF900D87EEF0A3EFF0BC
:101EEF00900D8DE0FEA3E0FFEF4E70030221CF9027
:101EFF000D50E0FEA3E0FFE4FCFD900D89E0F8A398
:101F0F00E0F9A3E0FAA3E0FBC3122D5C500302211A
:101F1F00CF900D52E0FEA3E0FFE4FCFD900D89E0B1
:101F2F00F8A3E0F9A3E0FAA3E0FBD3122D5C400382
:101F3F000221CF1260639010207481F00000009096
:101F4F00102074A1F0900D89E0FCA3E0FDA3E0FE4A
:101F5F00A3E0FF7810122D6DEF54FFFFEE5400FE3B
:101F6F00ED5400FDEC5400FC901028EFF0900D891B
:101F7F00E0FCA3E0FDA3E0FEA3E0FF7808122D6DC7
:101F8F00EF54FFFFEE5400FEED5400FDEC5400FC47
:101F9F00901029EFF0900D89E0FCA3E0FDA3E0FE87
:101FAF00A3E0FFEF54FFFFEE5400FEED5400FDECF5
:101FBF005400FC90102AEFF0900D89E0FCA3E0FD97
:101FCF00A3E0FEA3E0FF900D5D122DA35386DFE586
:101FDF00865420FF7E00EF4E60030221AB900D4E22
:101FEF00E0FEA3E0FFEF64337003EE64CC60030206
:101FFF0021A3900D50E0FEA3E0FFE4FCFD900D89BE
:10200F00E0F8A3E0F9A3E0FAA3E0FBC3122D5C50C4
:10201F000302219B900D52E0FEA3E0FFE4FCFD9034
:10202F000D89E0F8A3E0F9A3E0FAA3E0FBD3122DAA
:10203F005C400302219B900D87E0FEA3E0FFEE645E
:10204F009CFEEF6475FFEF64557003EE64AA6003A6
:10205F00022173900D8FE0FBA3E0FAA3E0F9900D3E
:10206F0045EBF0A3EAF0A3E9F0900D98E4F0A3E4B8
:10207F00F0900D8DE0FEA3E0FF900D98E0FCA3E043
:10208F00FDC3ED9FEC9E4003022173900D8FE0FB8B
:10209F00A3E0FAA3E0F9EA494B70117B017A0D79BD
:1020AF0092900D45EBF0A3EAF0A3E9F0900D98E0C4
:1020BF00FEA3E0FFE4FCFD900D89E0F8A3E0F9A397
:1020CF00E0FAA3E0FBEF2BFFEE3AFEED39FDEC3823
:1020DF00FC900D5D122DA3900D45E0FBA3E475F070
:1020EF0001122C29A9F0FA122B99FF90102BEFF067
:1020FF00900D45E0FBA3E475F001122C29A9F0FA2D
:10210F00122B99FF90102CEFF0900D45E0FBA3E4FC
:10211F0075F001122C29A9F0FA122B99FF90102DAE
:10212F00EFF0900D45E0FBA3E475F001122C29A907
:10213F00F0FA122B99FF90102EEFF043B901D290C5
:10214F0090102F740AF000901022E0FFEF30E7F7A5
:10215F00C29000900D99E02404F0900D98E03400A7
:10216F00F0022080901020E4F0901020E4F0901006
:10217F002F7430F0900D8FE0FBA3E0FAA3E0F990FD
:10218F000D45EBF0A3EAF0A3E9F08016900D9E74D5
:10219F0080F0800E900D9E7480F08006900D9E74DE
:1021AF0001F0901020E4F090102F7430F090102870
:1021BF007403F090102974FFF090102AE4F0800E51
:1021CF00900D9E7480F08006900D9E7480F0900D9F
:0A21DF009BE0FF8F86900D9EE0FF4D
:0121E90022D3
:10559E00900E15EEF0A3EFF0900E17ECF0A3EDF0D9
:0B55AE00900E19EBF0A3EAF0A3E9F067
:1055B900900E1CE4F0A3E4F0900E1EE4F0A3E4F0D6
:1055C900900E1EE4F0A3E4F0900E17E0FEA3E0FFB6
:1055D900900E1EE0FCA3E0FDC3ED9FEC9E505A9097
:1055E9000E1EE0FEA3E0FF900E15E0FCA3E0FDED2A
:1055F9002FFFEC3EFE900E1CE0FCA3E0FD8D828C9B
:1056090083E5822FF582E5833EF583E493FF900ECF
:1056190019E0FBA3E0FAA3E0F9900E1EE0FCA3E079
:10562900FD8D828C83EF122BF1900E1FE004F07038
:0956390006900E1EE004F0808FC3
:015642002245
:1041AB00900E85EEF0A3EFF0900E87ECF0A3EDF000
:1041BB00900D63122DAF00000000126063900E870C
:1041CB00E0FEA3E0FF900E85E0FCA3E0FDD3ED9FA6
:1041DB00EC9E40209010207481F09010377408F002
:1041EB0090102F7406F000901022E0FFEF30E7F7ED
:1041FB000002429F900E85E0FEA3E0FFEEFF7E00E3
:10420B00901029EFF0900E85E0FEA3E0FFEF54FF36
:10421B00FF90102AEFF0900E87E0FEA3E0FFEEFF79
:10422B007E00901024EFF0900E87E0FEA3E0FFEFEE
:10423B0054FFFF901025EFF0901029E0FF7E00EF68
:10424B007F00FE90102AE0FD7C00EE4CFEEF4DFF50
:10425B00900D4CEEF0A3EFF0901024E0FF7E00EFFA
:10426B007F00FE901025E0FD7C00EE4CFEEF4DFF35
:10427B00900D61EEF0A3EFF09010207481F0901090
:10428B0037E4F090102F7406F000901022E0FFEF4F
:10429B0030E7F70090101EE0FFE4FCFDFE900D638D
:1042AB00122DA3900D63E0FCA3E0FDA3E0FEA3E0C1
:1042BB00FF7808122D80900D63122DA3900D63E0F3
:1042CB00F8A3E0F9A3E0FAA3E0FB90101DE0FFE4F4
:1042DB00FCFDFEEB4FFFEA4EFEE94DFDE84CFC907A
:1042EB000D63122DA3900D63E0FCA3E0FDA3E0FE94
:1042FB00A3E0FF7808122D80900D63122DA3900D73
:10430B0063E0F8A3E0F9A3E0FAA3E0FB90101CE054
:10431B00FFE4FCFDFEEB4FFFEA4EFEE94DFDE84CE2
:10432B00FC900D63122DA3901020E4F090102F74CD
:10433B0030F0901029E0FF7E00EF7F00FE90102AF6
:10434B00E0FD7C00EE4CFEEF4DFF900D5BEEF0A31D
:10435B00EFF0901024E0FF7E00EF7F00FE90102521
:10436B00E0FD7C00EE4CFEEF4DFF900D67EEF0A3F1
:10437B00EFF0900D63E0FCA3E0FDA3E0FEA3E0FFF4
:01438B00220F
:1057810075800075910075ACFF75A100901041E422
:10579100F0901040E4F090104CE4F07588007592A0
:1057A1000075ADFF75B100901043E4F0901042E434
:1057B100F075900075930075AEFF75B900901044B7
:1057C100E4F075980075AFFF75C100901046E4F0E4
:1057D100A3E4F090104DE4F090104EE4F090104FDF
:1057E100E4F075940075A00075950075B5FF75C955
:1057F10000901049E4F0901048E4F075B00075A3F2
:105801000075B6FF75D10090104BE4F090104AE49A
:02581100F02283
:104D0000900E99EFF0900E9AEDF0900E9BEBF090D4
:104D10000E99E0FFEF122DE04D2E004D5B014D8806
:104D2000024DB5034DDE044E0B0500004E37900ECC
:104D30009AE0FFA8077401088002C333D8FCFFEF94
:104D400042A1900E9AE0FF900E9BE0FEA807EE08AD
:104D50008002C333D8FCFFEF429122900E9AE0FF0D
:104D6000A8077401088002C333D8FCFFEF42B1905A
:104D70000E9AE0FF900E9BE0FEA807EE088002C3AB
:104D800033D8FCFFEF429222900E9AE0FFA80774FE
:104D900001088002C333D8FCFFEF42B9900E9AE0BD
:104DA000FF900E9BE0FEA807EE088002C333D8FCFC
:104DB000FFEF429322900E9AE0FFA807740108804B
:104DC00002C333D8FCFFEF42C1900E9AE0FFA80760
:104DD0007401088002C333D8FCFFEF429422900E86
:104DE0009AE0FFA8077401088002C333D8FCFFEFE4
:104DF00042C9900E9AE0FF900E9BE0FEA807EE08D5
:104E00008002C333D8FCFFEF429522900E9AE0FF58
:104E1000A8077401088002C333D8FCFFEF42D19089
:104E20000E9AE0FF900E9BE0FEA807EE088002C3FA
:084E300033D8FCFFEF42A3227E
:104BB200900E9CEFF0900E9DEDF0900E9EEBF0901B
:104BC2000E9CE0FFEF122DE04BE0004C10014C4038
:104BD200024C70034CA0044CD00500004CFF900E18
:104BE2009DE0FFA8077401088002C333D8FCFFEFE1
:104BF200F4FFEF52A1900E9DE0FF900E9EE0FEA802
:104C020007EE088002C333D8FCFFEF42AC22900EBD
:104C12009DE0FFA8077401088002C333D8FCFFEFB0
:104C2200F4FFEF52B1900E9DE0FF900E9EE0FEA8C1
:104C320007EE088002C333D8FCFFEF42AD22900E8C
:104C42009DE0FFA8077401088002C333D8FCFFEF80
:104C5200F4FFEF52B9900E9DE0FF900E9EE0FEA889
:104C620007EE088002C333D8FCFFEF42AE22900E5B
:104C72009DE0FFA8077401088002C333D8FCFFEF50
:104C8200F4FFEF52C1900E9DE0FF900E9EE0FEA851
:104C920007EE088002C333D8FCFFEF42AF22900E2A
:104CA2009DE0FFA8077401088002C333D8FCFFEF20
:104CB200F4FFEF52C9900E9DE0FF900E9EE0FEA819
:104CC20007EE088002C333D8FCFFEF42B522900EF4
:104CD2009DE0FFA8077401088002C333D8FCFFEFF0
:104CE200F4FFEF52C9900E9DE0FF900E9EE0FEA8E9
:0E4CF20007EE088002C333D8FCFFEF42B52264
:0F148400900E89EFF0900E8AEDF0900E8BEBF04A
:10149300900E89E0FFEF122DE014B200158C0116B7
:1014A300660217400317B504188F050000196890EA
:1014B3000E8AE0FF7E00D3EF9403EE6480948040B5
:1014C30068901041E0FF900E8CEFF0900E8CE0FFDF
:1014D300900E8AE0FEEE24FCFEEE25E0FEA80674E4
:1014E30003088002C333D8FCFEEEF4FEEF5EFF90E8
:1014F3000E8CEFF0900E8CE0FF900E8AE0FEEE244F
:10150300FCFEEE25E0FE900E8BE0FDA806ED0880C4
:1015130002C333D8FCFEEF4EFF900E8CEFF0900E1B
:101523008CE0FF901041EFF022901040E0FF900E0E
:101533008CEFF0900E8CE0FF900E8AE0FEEE25E03B
:10154300FEA8067403088002C333D8FCFEEEF4FE43
:10155300EF5EFF900E8CEFF0900E8CE0FF900E8A02
:10156300E0FEEE25E0FE900E8BE0FDA806ED088080
:1015730002C333D8FCFEEF4EFF900E8CEFF0900EBB
:101583008CE0FF901040EFF022900E8AE0FF7E0087
:10159300D3EF9403EE648094804068901043E0FF9F
:1015A300900E8CEFF0900E8CE0FF900E8AE0FEEE32
:1015B30024FCFEEE25E0FEA8067403088002C33374
:1015C300D8FCFEEEF4FEEF5EFF900E8CEFF0900E73
:1015D3008CE0FF900E8AE0FEEE24FCFEEE25E0FE9A
:1015E300900E8BE0FDA806ED088002C333D8FCFE05
:1015F300EF4EFF900E8CEFF0900E8CE0FF901043B7
:10160300EFF022901042E0FF900E8CEFF0900E8CE2
:10161300E0FF900E8AE0FEEE25E0FEA806740308C4
:101623008002C333D8FCFEEEF4FEEF5EFF900E8C17
:10163300EFF0900E8CE0FF900E8AE0FEEE25E0FEC8
:10164300900E8BE0FDA806ED088002C333D8FCFEA4
:10165300EF4EFF900E8CEFF0900E8CE0FF90104257
:10166300EFF022900E8AE0FF7E00D3EF9403EE6446
:101673008094804068901045E0FF900E8CEFF090CE
:101683000E8CE0FF900E8AE0FEEE24FCFEEE25E0D9
:10169300FEA8067403088002C333D8FCFEEEF4FEF2
:1016A300EF5EFF900E8CEFF0900E8CE0FF900E8AB1
:1016B300E0FEEE24FCFEEE25E0FE900E8BE0FDA89E
:1016C30006ED088002C333D8FCFEEF4EFF900E8C6C
:1016D300EFF0900E8CE0FF901045EFF02290104455
:1016E300E0FF900E8CEFF0900E8CE0FF900E8AE0FE
:1016F300FEEE25E0FEA8067403088002C333D8FC7F
:10170300FEEEF4FEEF5EFF900E8CEFF0900E8CE099
:10171300FF900E8AE0FEEE25E0FE900E8BE0FDA822
:1017230006ED088002C333D8FCFEEF4EFF900E8C0B
:10173300EFF0900E8CE0FF901044EFF022900E8BB0
:10174300E0FF7E00C3EF9402EE64809480400302C6
:101753001968901046E0FEA3E0FF900E8CEFF09026
:101763000E8CE0FF900E8AE0FEA80674010880024A
:10177300C333D8FCFEEEF4FEEF5EFF900E8CEFF069
:10178300900E8CE0FF900E8AE0FE900E8BE0FDA899
:1017930006ED088002C333D8FCFEEF4EFF900E8C9B
:1017A300EFF0900E8CE0FF7E00901046EEF0A3EF7A
:1017B300F022900E8AE0FF7E00D3EF9403EE648064
:1017C30094804068901049E0FF900E8CEFF0900EEB
:1017D3008CE0FF900E8AE0FEEE24FCFEEE25E0FE98
:1017E300A8067403088002C333D8FCFEEEF4FEEFB0
:1017F3005EFF900E8CEFF0900E8CE0FF900E8AE06F
:10180300FEEE24FCFEEE25E0FE900E8BE0FDA80626
:10181300ED088002C333D8FCFEEF4EFF900E8CEF31
:10182300F0900E8CE0FF901049EFF022901048E00A
:10183300FF900E8CEFF0900E8CE0FF900E8AE0FE8E
:10184300EE25E0FEA8067403088002C333D8FCFE2D
:10185300EEF4FEEF5EFF900E8CEFF0900E8CE0FF47
:10186300900E8AE0FEEE25E0FE900E8BE0FDA806CA
:10187300ED088002C333D8FCFEEF4EFF900E8CEFD1
:10188300F0900E8CE0FF901048EFF022900E8AE06B
:10189300FF7E00D3EF9403EE648094804068901041
:1018A3004BE0FF900E8CEFF0900E8CE0FF900E8AD1
:1018B300E0FEEE24FCFEEE25E0FEA806740308809D
:1018C30002C333D8FCFEEEF4FEEF5EFF900E8CEF06
:1018D300F0900E8CE0FF900E8AE0FEEE24FCFEEE0C
:1018E30025E0FE900E8BE0FDA806ED088002C333D1
:1018F300D8FCFEEF4EFF900E8CEFF0900E8CE0FFC5
:1019030090104BEFF02290104AE0FF900E8CEFF016
:10191300900E8CE0FF900E8AE0FEEE25E0FEA80616
:101923007403088002C333D8FCFEEEF4FEEF5EFFBF
:10193300900E8CEFF0900E8CE0FF900E8AE0FEEE9E
:1019430025E0FE900E8BE0FDA806ED088002C33370
:10195300D8FCFEEF4EFF900E8CEFF0900E8CE0FF64
:0519630090104AEFF0B6
:01196800225C
:10376A00900EB4EFF0900EB5EDF0900EB4E0FFEFCE
:10377A00122DE037930037A90137BF0237D5033737
:10378A00EB0438010500003815900EB5E0FFA807D4
:10379A007401088002C333D8FCFFEF4280806C902A
:1037AA000EB5E0FFA8077401088002C333D8FCFFF6
:1037BA00EF42888056900EB5E0FFA8077401088092
:1037CA0002C333D8FCFFEF42908040900EB5E0FF71
:1037DA00A8077401088002C333D8FCFFEF4298801F
:1037EA002A900EB5E0FFA8077401088002C333D8F7
:1037FA00FCFFEF42A08014900EB5E0FFA807740109
:10380A00088002C333D8FCFFEF42B0900EB4E0FF49
:10381A00EF122DE038340038700138AC0238E80372
:10382A00392404395D0500003995900EB5E0FF7E14
:10383A00007401A807088005C333CE33CED8F9FF38
:10384A00ADA17C00EE5CFEEF5DFFEF4E6003023936
:10385A0095900EB5E0FFA8077401088002C333D81B
:10386A00FCFFEF42A122900EB5E0FF7E007401A892
:10387A0007088005C333CE33CED8F9FFADB17C003B
:10388A00EE5CFEEF5DFFEF4E6003023995900EB5D8
:10389A00E0FFA8077401088002C333D8FCFFEF4297
:1038AA00B122900EB5E0FF7E007401A807088005DA
:1038BA00C333CE33CED8F9FFADB97C00EE5CFEEF50
:1038CA005DFFEF4E6003023995900EB5E0FFA80741
:1038DA007401088002C333D8FCFFEF42B922900E6C
:1038EA00B5E0FF7E007401A807088005C333CE3314
:1038FA00CED8F9FFADC17C00EE5CFEEF5DFFEF4E66
:10390A006003023995900EB5E0FFA807740108809C
:10391A0002C333D8FCFFEF42C122900EB5E0FF7E0E
:10392A00007401A807088005C333CE33CED8F9FF47
:10393A00ADC97C00EE5CFEEF5DFFEF4E704D900E60
:10394A00B5E0FFA8077401088002C333D8FCFFEF73
:10395A0042C922900EB5E0FF7E007401A8070880D4
:10396A0005C333CE33CED8F9FFADD17C00EE5CFE71
:10397A00EF5DFFEF4E7014900EB5E0FFA8077401DB
:0C398A00088002C333D8FCFFEF42D122BA
:10352C00900EB6EFF0900EB7EDF0900EB6E0FFEF08
:10353C00122DE0355500356E0135870235A0033567
:10354C00B90435D205000035E9900EB7E0FFA807A5
:10355C007401088002C333D8FCFFEFF4FFEF5280F4
:10356C00807B900EB7E0FFA8077401088002C3337C
:10357C00D8FCFFEFF4FFEF52888062900EB7E0FFAB
:10358C00A8077401088002C333D8FCFFEFF4FFEFE7
:10359C0052908049900EB7E0FFA807740108800292
:1035AC00C333D8FCFFEFF4FFEF52988030900EB786
:1035BC00E0FFA8077401088002C333D8FCFFEFF4C6
:1035CC00FFEF52A08017900EB7E0FFA80774010818
:1035DC008002C333D8FCFFEFF4FFEF52B0900EB66D
:1035EC00E0FFEF122DE0360800364401368002363B
:1035FC00BC0336F80437310500003769900EB7E08C
:10360C00FF7E007401A807088005C333CE33CED8E3
:10361C00F9FFADA17C00EE5CFEEF5DFFEF4E6003A9
:10362C00023769900EB7E0FFA8077401088002C347
:10363C0033D8FCFFEF42A122900EB7E0FF7E00745E
:10364C0001A807088005C333CE33CED8F9FFADB13E
:10365C007C00EE5CFEEF5DFFEF4E6003023769907D
:10366C000EB7E0FFA8077401088002C333D8FCFF33
:10367C00EF42B122900EB7E0FF7E007401A807085C
:10368C008005C333CE33CED8F9FFADB97C00EE5CE8
:10369C00FEEF5DFFEF4E6003023769900EB7E0FF5F
:1036AC00A8077401088002C333D8FCFFEF42B9228B
:1036BC00900EB7E0FF7E007401A807088005C333A5
:1036CC00CE33CED8F9FFADC17C00EE5CFEEF5DFFD2
:1036DC00EF4E6003023769900EB7E0FFA807740144
:1036EC00088002C333D8FCFFEF42C122900EB7E032
:1036FC00FF7E007401A807088005C333CE33CED8F3
:10370C00F9FFADC97C00EE5CFEEF5DFFEF4E704D36
:10371C00900EB7E0FFA8077401088002C333D8FCF1
:10372C00FFEF42C922900EB7E0FF7E007401A8079C
:10373C00088005C333CE33CED8F9FFADD17C00EE73
:10374C005CFEEF5DFFEF4E7014900EB7E0FFA80724
:0E375C007401088002C333D8FCFFEF42D12273
:10399600900EB8EFF0900EB9EDF0900EB8E0FFEF94
:1039A600122DE039BF0039D50139EB023A01033A4D
:1039B60017043A2D0500003A41900EB9E0FFA8071A
:1039C6007401088002C333D8FCFFEF6280806C90DC
:1039D6000EB9E0FFA8077401088002C333D8FCFFC4
:1039E600EF62888056900EB9E0FFA8077401088040
:1039F60002C333D8FCFFEF62908040900EB9E0FF1F
:103A0600A8077401088002C333D8FCFFEF629880D0
:103A16002A900EB9E0FFA8077401088002C333D8C4
:103A2600FCFFEF62A08014900EB9E0FFA8077401B6
:103A3600088002C333D8FCFFEF62B0900EB8E0FFF7
:103A4600EF122DE03A60003A9C013AD8023B14038B
:103A56003B50043B890500003BC1900EB9E0FF7E58
:103A6600007401A807088005C333CE33CED8F9FF0A
:103A7600ADA17C00EE5CFEEF5DFFEF4E6003023B06
:103A8600C1900EB9E0FFA8077401088002C333D8BD
:103A9600FCFFEF42A122900EB9E0FF7E007401A860
:103AA60007088005C333CE33CED8F9FFADB17C000D
:103AB600EE5CFEEF5DFFEF4E6003023BC1900EB978
:103AC600E0FFA8077401088002C333D8FCFFEF4269
:103AD600B122900EB9E0FF7E007401A807088005A8
:103AE600C333CE33CED8F9FFADB97C00EE5CFEEF22
:103AF6005DFFEF4E6003023BC1900EB9E0FFA807E1
:103B06007401088002C333D8FCFFEF42B922900E3D
:103B1600B9E0FF7E007401A807088005C333CE33E1
:103B2600CED8F9FFADC17C00EE5CFEEF5DFFEF4E37
:103B36006003023BC1900EB9E0FFA807740108803C
:103B460002C333D8FCFFEF42C122900EB9E0FF7EDC
:103B5600007401A807088005C333CE33CED8F9FF19
:103B6600ADC97C00EE5CFEEF5DFFEF4E704D900E32
:103B7600B9E0FFA8077401088002C333D8FCFFEF41
:103B860042C922900EB9E0FF7E007401A8070880A2
:103B960005C333CE33CED8F9FFADD17C00EE5CFE43
:103BA600EF5DFFEF4E7014900EB9E0FFA8077401A9
:0C3BB600088002C333D8FCFFEF42D1228C
:0A288700900E9FEFF0900EA0EDF010
:10289100900E9FE0FFEF122DE028B00028F10129F2
:1028A100320229730329B30429F00500002A2B9071
:1028B1000EA0E0FF7E007401A807088005C333CE97
:1028C10033CED8F9FFADA17C00EE5CFEEF5DFFEFEA
:1028D1004E7003022A2B900EA0E0FFA80774010896
:1028E1008002C333D8FCFFEFF4FFEF52A1022A2B81
:1028F100900EA0E0FF7E007401A807088005C33395
:10290100CE33CED8F9FFADB17C00EE5CFEEF5DFFBA
:10291100EF4E7003022A2B900EA0E0FFA80774016E
:10292100088002C333D8FCFFEFF4FFEF52B1022A53
:102931002B900EA0E0FF7E007401A807088005C35C
:1029410033CE33CED8F9FFADB97C00EE5CFEEF5D3E
:10295100FFEF4E7003022A2B900EA0E0FFA8077430
:1029610001088002C333D8FCFFEFF4FFEF52B90234
:102971002A2B900EA0E0FF7E007401A807088005B5
:10298100C333CE33CED8F9FFADC17C00EE5CFEEF90
:102991005DFFEF4E7003022A2B900EA0E0FFA80707
:1029A1007401088002C333D8FCFFEFF4FFEF52C17A
:1029B1008078900EA0E0FF7E007401A807088005D2
:1029C100C333CE33CED8F9FFADC97C00EE5CFEEF48
:1029D1005DFFEF4E6054900EA0E0FFA80774010860
:1029E1008002C333D8FCFFEFF4FFEF52C9803B9064
:1029F1000EA0E0FF7E007401A807088005C333CE56
:102A010033CED8F9FFADD17C00EE5CFEEF5DFFEF78
:102A11004E6017900EA0E0FFA8077401088002C362
:102A210033D8FCFFEFF4FFEF52D1900E9FE0FFEFA0
:102A3100122DE02A4A002A7C012AAE022AE0032B49
:102A410011042B420500002B71900EA0E0FF7E00C7
:102A51007401A807088005C333CE33CED8F9FFAD82
:102A6100807C00EE5CFEEF5DFFEF4E60047F018035
:102A7100027F00900EA1EFF0022B71900EA0E0FFFB
:102A81007E007401A807088005C333CE33CED8F980
:102A9100FFAD887C00EE5CFEEF5DFFEF4E60047FD2
:102AA1000180027F00900EA1EFF0022B71900EA029
:102AB100E0FF7E007401A807088005C333CE33CE42
:102AC100D8F9FFAD907C00EE5CFEEF5DFFEF4E604C
:102AD100047F0180027F00900EA1EFF0022B719024
:102AE1000EA0E0FF7E007401A807088005C333CE65
:102AF10033CED8F9FFAD987C00EE5CFEEF5DFFEFC1
:102B01004E60047F0180027F00900EA1EFF0806093
:102B1100900EA0E0FF7E007401A807088005C33372
:102B2100CE33CED8F9FFADA07C00EE5CFEEF5DFFA9
:102B3100EF4E60047F0180027F00900EA1EFF080D4
:102B41002F900EA0E0FF7E007401A807088005C346
:102B510033CE33CED8F9FFADB07C00EE5CFEEF5D35
:102B6100FFEF4E60047F0180027F00900EA1EFF025
:052B7100900EA1E0FF41
:012B7600223C
:105E0A00900EC9EFF0900EC9E0FFEF122DE05E4050
:105E1A00005E40015E40025E40035E40045E400553
:105E2A005E40065E40075E44085E480A5E4C0B5EB2
:105E3A00500C00005E5343A8202243A9012243A824
:0A5E4A00012243A8022243A92022EE
:105E5400900ECAEFF0900ECAE0FFEF122DE05E8ABA
:105E6400005E8A015E8A025E8A035E8A045E8A0597
:105E74005E8A065E8A075E8E085E920A5E960B5EF6
:105E84009A0C00005E9D53A8DF2253A9FE2253A85A
:0A5E9400FE2253A8FD2253A9DF22CD
:0A438C00900EA2EFF0900EA3EDF0EA
:10439600900EA2E0FFEF122DE043C70043C7014392
:1043A600C70243C703442004442005442006442092
:1043B6000744810844AF0A44E30B45160C00004548
:1043C6004A900EA4E5A4F0900EA4E0FF900EA2E0A1
:1043D600FEEE25E0FEA8067403088002C333D8FC6F
:1043E600FEEEF4FEEF5EFF900EA4EFF0900EA4E05A
:1043F600FF900EA2E0FEEE25E0FE900EA3E0FDA8E3
:1044060006ED088002C333D8FCFEEF4EFF900EA4E3
:10441600EFF0900EA4E0FF8FA422900EA4E5A5F085
:10442600900EA4E0FF900EA2E0FEEE24FCFEEE2528
:10443600E0FEA8067403088002C333D8FCFEEEF43F
:10444600FEEF5EFF900EA4EFF0900EA4E0FF900E3C
:10445600A2E0FEEE24FCFEEE25E0FE900EA3E0FDBB
:10446600A806ED088002C333D8FCFEEF4EFF900E7F
:10447600A4EFF0900EA4E0FF8FA522900EA4E5A76E
:10448600F0900EA4E0FFEF54FCFF900EA4EFF09026
:104496000EA4E0FF900EA3E0FEEF4EFF900EA4EFF9
:1044A600F0900EA4E0FF8FA722900EA4E5A7F0904F
:1044B6000EA4E0FFEF54F3FF900EA4EFF0900EA4CD
:1044C600E0FF900EA3E0FEEE25E025E0FEEF4EFFB6
:1044D600900EA4EFF0900EA4E0FF8FA722900EA4FA
:1044E600E5A7F0900EA4E0FFEF54CFFF900EA4EFE7
:1044F600F0900EA4E0FF900EA3E0FEEEC454F0FE92
:10450600EF4EFF900EA4EFF0900EA4E0FF8FA722CF
:10451600900EA4E5A7F0900EA4E0FFEF543FFF90A5
:104526000EA4EFF0900EA4E0FF900EA3E0FEEEC402
:10453600333354C0FEEF4EFF900EA4EFF0900EA45E
:04454600E0FF8FA75C
:01454A00224E
:05539800900EBAEFF0D9
:10539D00900EBAE0FFEF122DE053CE0053CE015325
:1053AD00CE0253CE0353CE0453CE0553CE0653CE69
:1053BD000753FF0854110A54230B54350C000054A5
:1053CD0045900EBAE0FF7E007401A807088005C362
:1053DD0033CE33CED8F9FFADC07C00EE5CFEEF5D71
:1053ED00FFEF4E60047F0180027F00900EBBEFF057
:1053FD008046E5A630E0047F0180027F00900EBB61
:10540D00EFF08034E5A630E1047F0180027F00904B
:10541D000EBBEFF08022E5A630E2047F0180027F13
:10542D0000900EBBEFF08010E5A630E3047F018005
:0D543D00027F00900EBBEFF0900EBBE0FF71
:01544A00223F
:105B2400900ECBEFF0900ECBE0FFEF122DE05B5A1E
:105B3400005B5A015B5A025B5A035B5A045B5A05C9
:105B44005B5A065B5A075B70085B740A5B780B5BF5
:105B54007C0C00005B7F900ECBE0FFA8077401086B
:105B64008002C333D8FCFFEFF4F5C02275A6FE22F1
:0C5B740075A6FD2275A6FB2275A6F7227F
:02600800C10CC9
:10607F00900DB1E0FFEF04FFEF75F008122B77AF33
:10608F00F0900DB2E0FEEFB506047F0180027F00B5
:01609F0022DE
:10614E00900DB2E0FF900DB1E0FEEEB507047F01B9
:05615E0080027F002219
:1060A000900DAFE0FFEF04FFEF75F008122B77AF14
:1060B000F0900DB0E0FEEFB506047F0180027F0096
:0160C00022BD
:10616300900DB0E0FF900DAFE0FEEEB507047F01A8
:0561730080027F002204
:063BC200900DD3122DA3AB
:103BC800900DDFE4F0900DE0E4F0900DE1E5CBF02E
:103BD800900DE1E0FFEF543FFF900DE1EFF0900D05
:103BE800E1E0FF900DD7E0FEEE25E0FE900DD9E074
:103BF800FDEDC454F0FDED4EFEEF4EFF900DE1EFEC
:103C0800F0900DE2E5CCF0900DDAE0FF7E00EF6475
:103C1800014E7010900DE2E0FFEF4404FF900DE2BA
:103C2800EFF0802B900DDAE0FF7E00EF64024E701B
:103C380010900DE2E0FFEF4408FF900DE2EFF080F6
:103C48000E900DE2E0FFEF440CFF900DE2EFF090D4
:103C58000DE2E0FFEF4402FF900DE2EFF0E5CC301B
:103C6800E0321252D97B087A0079007800122CCA07
:103C78007B007A0179007800122C3F900DD3E0F890
:103C8800A3E0F9A3E0FAA3E0FB122CCA900DDB1223
:103C98002DA38067E5CB30E6321252D97B027A0039
:103CA80079007800122CCA7B007A0179007800121A
:103CB8002C3F900DD3E0F8A3E0F9A3E0FAA3E0FBD2
:103CC800122CCA900DDB122DA380301252D97B1012
:103CD8007A0079007800122CCA7B007A0179007882
:103CE80000122C3F900DD3E0F8A3E0F9A3E0FAA36B
:103CF800E0FB122CCA900DDB122DA3900DDBE0FC2B
:103D0800A3E0FDA3E0FEA3E0FFEF2400FFEE34FFF5
:103D1800FEED34FFFDEC34FFFC900DDB122DA37B90
:103D2800007A0179007800900DDBE0FCA3E0FDA3A8
:103D3800E0FEA3E0FF122CCAEF54FFFFEE5400FE92
:103D4800ED5400FDEC5400FC900DDFEFF0900DDB1E
:103D5800E0FCA3E0FDA3E0FEA3E0FFEF54FFFFEECD
:103D68005400FEED5400FDEC5400FC900DE0EFF023
:103D7800900DE0E0FFEF6014900DDFE004F0900D8F
:103D8800E0E0FFEFF404FF900DE0EFF0E5CB20E674
:103D98000343CF08900DE1E0FF8FCB900DD8E0FFF3
:103DA800EF25E025E0FFEF42CD900DDFE0FF8FFC2F
:103DB800900DE0E0FFEF600E900DE0E0FF7E007DEB
:103DC80001125EE380097D007F007E00125EE390B1
:073DD8000DE2E0FF8FCC00BB
:013DDF0022C1
:0658A400900E5E122DA320
:1058AA00900E63E5CBF0900E63E0FFEF543FFF905C
:1058BA000E63EFF0900E63E0FB900E5EE0FCA3E057
:1058CA00FDA3E0FEA3E0FF7806122D80EB4FFF90C8
:1058DA000E63EFF0900E64E5CDF0900E64E0FFEFFA
:1058EA00547FFF900E64EFF0900E64E0FF900E621A
:1058FA00E0FEEEC43333335480FEEF4EFF900E6465
:10590A00EFF043CF08900E63E0FF8FCB900E64E078
:03591A00FF8FCD2F
:01591D002267
:10613400900ECCEFF0900ECCE0FF7E00EF64014EA9
:0A614400700443CC022253CCFD226C
:105D2500900E77EBF0A3EAF0A3E9F0900E7AEDF090
:105D3500900E7BE4F0900E7AE0FF900E7BE0FEEE95
:105D4500C39F5028E5CF30E7FB900E77E0FBA3E03B
:105D5500FAA3E0F9900E7BE0FF8F82758300122B8A
:0C5D6500B2FF8FFD900E7BE004F080C9BF
:015D7100220F
:10598A00900ECDEFF0E5CC20E705E5CC30E65C12D1
:10599A00614EEF3395E0FEEF4E700E12607FEF33EB
:1059AA0095E0FEEF64014E60F27D007F01123FC96F
:1059BA00900ECDE0FF900DB1E0FEEEFD3395E0FCD8
:1059CA0074A72DF582740D3CF583EFF0900DB1E0CC
:1059DA0004FFF0EF75F008122B77AFF0900DB1EFDE
:0C59EA00F07D017F01123FC943CC8022F8
:105D7200900E7CEBF0A3EAF0A3E9F0900E7FEDF039
:105D8200900E80E4F0900E7FE0FF900E80E0FEEE39
:105D9200C39F5027E5CF30E5FB900E7CE0FBA3E0EC
:105DA200FAA3E0F9900E80E0FF8F82758300E5FD93
:0B5DB200122BF1900E80E004F080CA7C
:015DBD0022C3
:10603600900EA5EBF0A3EAF0A3E9F0E5CF30E51367
:10604600900EA5E0FBA3E0FAA3E0F9E5FD122BDF35
:066056007F01227F002201
:105C8600126163EF3395E0FEEF64014E60F27D0032
:105C96007F00123FC9900DB0E0FFEF3395E0FE7430
:105CA6009F2FF582740D3EF583E0FF900ECEEFF048
:105CB600900DB0E004FFF0EF75F008122B77AFF00F
:105CC600900DB0EFF07D017F00123FC9900ECEE03F
:015CD600FFCE
:015CD70022AA
:105A5D00900EA8EBF0A3EAF0A3E9F0126163EF3327
:105A6D0095E0FEEF64014E70037F00227D007F0004
:105A7D00123FC9900DB0E0FFEF3395E0FE749F2FFC
:105A8D00F582740D3EF583E0FF900EA8E0FBA3E0D8
:105A9D00FAA3E0F9EF122BDF900DB0E004FFF0EF69
:105AAD0075F008122B77AFF0900DB0EFF07D017F00
:075ABD0000123FC97F012226
:0A3FC900900E8DEFF0900E8EEDF0DB
:103FD300900E8DE0FF7E00EF64014E600302406DA2
:103FE300900E8FE5A9F0900E8FE0FFEF54FDFF9048
:103FF3000E8FEFF0900E8FE0FF900E8EE0FEEE2519
:10400300E0FEEF4EFF900E8FEFF0900E90E5CCF0B8
:10401300900E90E0FF900E8DE0FEEE2405FEA806C4
:104023007401088002C333D8FCFEEEF4FEEF5EFF9A
:10403300900E90EFF0900E90E0FF900E8DE0FEEE6C
:104043002405FE900E8EE0FDA806ED088002C33322
:10405300D8FCFEEF4EFF900E90EFF0900E8FE0FF36
:104063008FA9900E90E0FF8FCC22900E8DE0FF7E03
:1040730000EF4E6003024105900E8FE5ABF0900E0A
:104083008FE0FFEF54FDFF900E8FEFF0900E8FE067
:10409300FF900E8EE0FEEE25E0FEEF4EFF900E8FBA
:1040A300EFF0900E90E5CCF0900E90E0FF900E8D27
:1040B300E0FEEE2405FEA8067401088002C333D88F
:1040C300FCFEEEF4FEEF5EFF900E90EFF0900E908C
:1040D300E0FF900E8DE0FEEE2405FE900E8EE0FDD7
:1040E300A806ED088002C333D8FCFEEF4EFF900E06
:1040F30090EFF0900E8FE0FF8FAB900E90E0FF8F6C
:10410300CC22900E8DE0FF7E00EF64024E7059903A
:104113000E8FE5CCF0900E8FE0FF900E8DE0FEEE5B
:104123002405FEA8067401088002C333D8FCFEEE02
:10413300F4FEEF5EFF900E8FEFF0900E8FE0FF9096
:104143000E8DE0FEEE2405FE900E8EE0FDA806ED3A
:10415300088002C333D8FCFEEF4EFF900E8FEFF0C2
:10416300900E8FE0FF8FCC22900E8DE0FF7E00EF4C
:1041730064034E7032900E8FE5CCF0900E8FE0FF0B
:10418300EF54EFFF900E8FEFF0900E8FE0FF900E45
:104193008EE0FEEEC454F0FEEF4EFF900E8FEFF074
:0741A300900E8FE0FF8FCCAE
:0141AA0022F2
:0B61CC00900ECFE5CFF0900ECFE0FF6B
:0161D70022A5
:055F9F00900EBCEFF0C4
:105FA400900EBDE5CCF0900EBDE0FFEF54EFFF90F6
:105FB4000EBDEFF0900EBDE0FF900EBCE0FEEEC40F
:105FC40054F0FEEF4EFF900EBDEFF0900EBDE0FFDB
:025FD4008FCC70
:015FD60022A8
:0461ED0053CFEF227B
:0D544B00900E91EFF0900E92ECF0A3EDF0BA
:10545800900E91E0FFEF605B901018E0FF900E94C3
:10546800EFF0900E94E0FFEF54EFFF900E94EFF002
:10547800900E94E0FF900E91E0FEEEC454F0FEEF23
:105488004EFF900E94EFF0900E94E0FF901018EFFE
:10549800F0900E92E0FEA3E0FFEEFF7E0090101A5F
:1054A800EFF0900E92E0FEA3E0FFEF54FFFF9010A4
:1054B8001BEFF0901018E0FF900E94EFF0900E9410
:1054C800E0FFEF54EFFF900E94EFF0900E94E0FFA2
:1054D800900E91E0FEEEC454F0FEEF4EFF900E9455
:0C54E800EFF0900E94E0FF901018EFF031
:0154F4002295
:1060FE00901018E0FFEF30E308900ED07401F0809E
:0B610E0005900ED0E4F0900ED0E0FFF2
:016119002263
:105F2700901018E0FF900ED1EFF0900ED1E0FFEF48
:105F370054EFFF900ED1EFF0900ED1E0FFEF54F742
:105F4700FF900ED1EFF0900ED1E0FFEF4410FF90DD
:0E5F57000ED1EFF0900ED1E0FF901018EFF099
:015F65002219
:105EE300900EABEEF0A3EFF0900EADEDF0900EAD93
:105EF300E0FF7E00EF64014E7019901018E0FFEF91
:105F03004404FFEFF0900EABE0FEA3E0FF90101906
:105F1300EFF022901018E0FFEF54FBFFEFF090102A
:045F230019E4F0226B
:104E3800900EBEE5CFF0900EBFE5CCF0E5CF20E5B3
:104E480003024F161260A0EF7003024EEA900EBEE6
:104E5800E0FFEF20E212900EBEE0FFEF20E10990A4
:104E68000EBEE0FFEF30E02C900DAFE0FFEF339582
:104E7800E0FE749F2FF582740D3EF583E5FDF090FA
:104E88000DAFE004FFF0EF75F008122B77AFF0904C
:104E98000DAFEFF0900DAFE0FFEF3395E0FE749F9C
:104EA8002FF582740D3EF583E5FDF0900DAFE0041B
:104EB800FFF0EF75F008122B77AFF0900DAFEFF021
:104EC800900DAFE4F0900DB0E4F0900DB0E0FFEF7E
:104ED8003395E0FE749F2FF582740D3EF583E4F060
:104EE800802C900DAFE0FFEF3395E0FE749F2FF517
:104EF80082740D3EF583E5FDF0900DAFE004FFF000
